{
  "_format": "hh-sol-artifact-1",
  "contractName": "SepoliaFaucet",
  "sourceName": "contracts/SepoliaFaucet.sol",
  "abi": [
    {
      "inputs": [
        {
          "internalType": "contract MinimalForwarder",
          "name": "forwarder",
          "type": "address"
        }
      ],
      "stateMutability": "nonpayable",
      "type": "constructor"
    },
    {
      "anonymous": false,
      "inputs": [
        {
          "indexed": true,
          "internalType": "address",
          "name": "from",
          "type": "address"
        },
        {
          "indexed": false,
          "internalType": "uint256",
          "name": "amount",
          "type": "uint256"
        }
      ],
      "name": "Deposit",
      "type": "event"
    },
    {
      "anonymous": false,
      "inputs": [
        {
          "indexed": false,
          "internalType": "uint256",
          "name": "oldTime",
          "type": "uint256"
        },
        {
          "indexed": false,
          "internalType": "uint256",
          "name": "newTime",
          "type": "uint256"
        }
      ],
      "name": "LockTimeChanged",
      "type": "event"
    },
    {
      "anonymous": false,
      "inputs": [
        {
          "indexed": true,
          "internalType": "address",
          "name": "to",
          "type": "address"
        },
        {
          "indexed": false,
          "internalType": "uint256",
          "name": "amount",
          "type": "uint256"
        }
      ],
      "name": "Withdrawal",
      "type": "event"
    },
    {
      "anonymous": false,
      "inputs": [
        {
          "indexed": false,
          "internalType": "uint256",
          "name": "oldAmount",
          "type": "uint256"
        },
        {
          "indexed": false,
          "internalType": "uint256",
          "name": "newAmount",
          "type": "uint256"
        }
      ],
      "name": "WithdrawalAmountChanged",
      "type": "event"
    },
    {
      "inputs": [
        {
          "internalType": "address",
          "name": "forwarder",
          "type": "address"
        }
      ],
      "name": "isTrustedForwarder",
      "outputs": [
        {
          "internalType": "bool",
          "name": "",
          "type": "bool"
        }
      ],
      "stateMutability": "view",
      "type": "function"
    },
    {
      "inputs": [],
      "name": "lockTime",
      "outputs": [
        {
          "internalType": "uint256",
          "name": "",
          "type": "uint256"
        }
      ],
      "stateMutability": "view",
      "type": "function"
    },
    {
      "inputs": [],
      "name": "owner",
      "outputs": [
        {
          "internalType": "address",
          "name": "",
          "type": "address"
        }
      ],
      "stateMutability": "view",
      "type": "function"
    },
    {
      "inputs": [],
      "name": "requestTokens",
      "outputs": [],
      "stateMutability": "nonpayable",
      "type": "function"
    },
    {
      "inputs": [
        {
          "internalType": "uint256",
          "name": "newTime",
          "type": "uint256"
        }
      ],
      "name": "setLockTime",
      "outputs": [],
      "stateMutability": "nonpayable",
      "type": "function"
    },
    {
      "inputs": [
        {
          "internalType": "uint256",
          "name": "amount",
          "type": "uint256"
        }
      ],
      "name": "setWithdrawalAmount",
      "outputs": [],
      "stateMutability": "nonpayable",
      "type": "function"
    },
    {
      "inputs": [],
      "name": "withdraw",
      "outputs": [],
      "stateMutability": "nonpayable",
      "type": "function"
    },
    {
      "inputs": [],
      "name": "withdrawalAmount",
      "outputs": [
        {
          "internalType": "uint256",
          "name": "",
          "type": "uint256"
        }
      ],
      "stateMutability": "view",
      "type": "function"
    },
    {
      "stateMutability": "payable",
      "type": "receive"
    }
  ],
  "bytecode": "0x60a060405266b1a2bc2ec500006001556202a3006002553480156200002357600080fd5b5060405162000d9838038062000d988339818101604052810190620000499190620001ec565b808073ffffffffffffffffffffffffffffffffffffffff1660808173ffffffffffffffffffffffffffffffffffffffff1681525050506200008f620000d560201b60201c565b6000806101000a81548173ffffffffffffffffffffffffffffffffffffffff021916908373ffffffffffffffffffffffffffffffffffffffff160217905550506200021e565b6000620000e8336200012c60201b60201c565b8015620000fa57506014600036905010155b156200011057601436033560601c905062000128565b620001206200016660201b60201c565b905062000129565b5b90565b600060805173ffffffffffffffffffffffffffffffffffffffff168273ffffffffffffffffffffffffffffffffffffffff16149050919050565b600033905090565b600080fd5b600073ffffffffffffffffffffffffffffffffffffffff82169050919050565b6000620001a08262000173565b9050919050565b6000620001b48262000193565b9050919050565b620001c681620001a7565b8114620001d257600080fd5b50565b600081519050620001e681620001bb565b92915050565b6000602082840312156200020557620002046200016e565b5b60006200021584828501620001d5565b91505092915050565b608051610b5e6200023a60003960006106180152610b5e6000f3fe60806040526004361061007f5760003560e01c8063572b6c051161004e578063572b6c05146101625780638da5cb5b1461019f578063ae04d45d146101ca578063e6e268f4146101f3576100db565b80630d668087146100e0578063168ee33a1461010b578063359cf2b7146101345780633ccfd60b1461014b576100db565b366100db5761008c61021e565b73ffffffffffffffffffffffffffffffffffffffff167fe1fffcc4923d04b559f4d29a8bfc6cda04eb5b0d3c460751c2402c5c5cc9109c346040516100d19190610797565b60405180910390a2005b600080fd5b3480156100ec57600080fd5b506100f5610261565b6040516101029190610797565b60405180910390f35b34801561011757600080fd5b50610132600480360381019061012d91906107e3565b610267565b005b34801561014057600080fd5b50610149610347565b005b34801561015757600080fd5b50610160610516565b005b34801561016e57600080fd5b506101896004803603810190610184919061086e565b610614565b60405161019691906108b6565b60405180910390f35b3480156101ab57600080fd5b506101b461066c565b6040516101c191906108e0565b60405180910390f35b3480156101d657600080fd5b506101f160048036038101906101ec91906107e3565b610690565b005b3480156101ff57600080fd5b50610208610770565b6040516102159190610797565b60405180910390f35b600061022933610614565b801561023a57506014600036905010155b1561024e57601436033560601c905061025d565b610256610776565b905061025e565b5b90565b60025481565b60008054906101000a900473ffffffffffffffffffffffffffffffffffffffff1673ffffffffffffffffffffffffffffffffffffffff166102a661021e565b73ffffffffffffffffffffffffffffffffffffffff16146102fc576040517f08c379a00000000000000000000000000000000000000000000000000000000081526004016102f39061097e565b60405180910390fd5b60006001549050816001819055507f144c23b32b964d2c832ad3419520af7592d13dfd3169efac8ba4dc9e51b09b91818360405161033b92919061099e565b60405180910390a15050565b6002546003600061035661021e565b73ffffffffffffffffffffffffffffffffffffffff1673ffffffffffffffffffffffffffffffffffffffff1681526020019081526020016000205461039b91906109f6565b4210156103dd576040517f08c379a00000000000000000000000000000000000000000000000000000000081526004016103d490610a9c565b60405180910390fd5b600154471015610422576040517f08c379a000000000000000000000000000000000000000000000000000000000815260040161041990610b08565b60405180910390fd5b426003600061042f61021e565b73ffffffffffffffffffffffffffffffffffffffff1673ffffffffffffffffffffffffffffffffffffffff1681526020019081526020016000208190555061047561021e565b73ffffffffffffffffffffffffffffffffffffffff166108fc6001549081150290604051600060405180830381858888f193505050501580156104bc573d6000803e3d6000fd5b506104c561021e565b73ffffffffffffffffffffffffffffffffffffffff167f7fcf532c15f0a6db0bd6d0e038bea71d30d808c7d98cb3bf7268a95bf5081b6560015460405161050c9190610797565b60405180910390a2565b60008054906101000a900473ffffffffffffffffffffffffffffffffffffffff1673ffffffffffffffffffffffffffffffffffffffff1661055561021e565b73ffffffffffffffffffffffffffffffffffffffff16146105ab576040517f08c379a00000000000000000000000000000000000000000000000000000000081526004016105a29061097e565b60405180910390fd5b60008054906101000a900473ffffffffffffffffffffffffffffffffffffffff1673ffffffffffffffffffffffffffffffffffffffff166108fc479081150290604051600060405180830381858888f19350505050158015610611573d6000803e3d6000fd5b50565b60007f000000000000000000000000000000000000000000000000000000000000000073ffffffffffffffffffffffffffffffffffffffff168273ffffffffffffffffffffffffffffffffffffffff16149050919050565b60008054906101000a900473ffffffffffffffffffffffffffffffffffffffff1681565b60008054906101000a900473ffffffffffffffffffffffffffffffffffffffff1673ffffffffffffffffffffffffffffffffffffffff166106cf61021e565b73ffffffffffffffffffffffffffffffffffffffff1614610725576040517f08c379a000000000000000000000000000000000000000000000000000000000815260040161071c9061097e565b60405180910390fd5b60006002549050816002819055507f3dda0257c2dd400eb1edae8815f5516b5aa39797d44f3a2afe18d6e217cefa12818360405161076492919061099e565b60405180910390a15050565b60015481565b600033905090565b6000819050919050565b6107918161077e565b82525050565b60006020820190506107ac6000830184610788565b92915050565b600080fd5b6107c08161077e565b81146107cb57600080fd5b50565b6000813590506107dd816107b7565b92915050565b6000602082840312156107f9576107f86107b2565b5b6000610807848285016107ce565b91505092915050565b600073ffffffffffffffffffffffffffffffffffffffff82169050919050565b600061083b82610810565b9050919050565b61084b81610830565b811461085657600080fd5b50565b60008135905061086881610842565b92915050565b600060208284031215610884576108836107b2565b5b600061089284828501610859565b91505092915050565b60008115159050919050565b6108b08161089b565b82525050565b60006020820190506108cb60008301846108a7565b92915050565b6108da81610830565b82525050565b60006020820190506108f560008301846108d1565b92915050565b600082825260208201905092915050565b7f4f6e6c7920746865206f776e65722063616e2063616c6c20746869732066756e60008201527f6374696f6e000000000000000000000000000000000000000000000000000000602082015250565b60006109686025836108fb565b91506109738261090c565b604082019050919050565b600060208201905081810360008301526109978161095b565b9050919050565b60006040820190506109b36000830185610788565b6109c06020830184610788565b9392505050565b7f4e487b7100000000000000000000000000000000000000000000000000000000600052601160045260246000fd5b6000610a018261077e565b9150610a0c8361077e565b9250828201905080821115610a2457610a236109c7565b5b92915050565b7f4d757374207761697420322064617973206265747765656e207769746864726160008201527f77616c7300000000000000000000000000000000000000000000000000000000602082015250565b6000610a866024836108fb565b9150610a9182610a2a565b604082019050919050565b60006020820190508181036000830152610ab581610a79565b9050919050565b7f46617563657420697320656d7074790000000000000000000000000000000000600082015250565b6000610af2600f836108fb565b9150610afd82610abc565b602082019050919050565b60006020820190508181036000830152610b2181610ae5565b905091905056fea26469706673582212205747894707a3ccfe3203d4875bb7bdab2dc2668360f48597a0644437f8262b3c64736f6c63430008180033",
  "linkReferences": {},
  "deployedLinkReferences": {}
}