{
  "_format": "hh-sol-artifact-1",
  "contractName": "SepoliaFaucet",
  "sourceName": "contracts/SepoliaFaucet.sol",
  "abi": [
    {
      "inputs": [],
      "stateMutability": "nonpayable",
      "type": "constructor"
    },
    {
      "anonymous": false,
      "inputs": [
        {
          "indexed": true,
          "internalType": "address",
          "name": "from",
          "type": "address"
        },
        {
          "indexed": false,
          "internalType": "uint256",
          "name": "amount",
          "type": "uint256"
        }
      ],
      "name": "Deposit",
      "type": "event"
    },
    {
      "anonymous": false,
      "inputs": [
        {
          "indexed": false,
          "internalType": "uint256",
          "name": "oldTime",
          "type": "uint256"
        },
        {
          "indexed": false,
          "internalType": "uint256",
          "name": "newTime",
          "type": "uint256"
        }
      ],
      "name": "LockTimeChanged",
      "type": "event"
    },
    {
      "anonymous": false,
      "inputs": [
        {
          "indexed": true,
          "internalType": "address",
          "name": "to",
          "type": "address"
        },
        {
          "indexed": false,
          "internalType": "uint256",
          "name": "amount",
          "type": "uint256"
        }
      ],
      "name": "Withdrawal",
      "type": "event"
    },
    {
      "anonymous": false,
      "inputs": [
        {
          "indexed": false,
          "internalType": "uint256",
          "name": "oldAmount",
          "type": "uint256"
        },
        {
          "indexed": false,
          "internalType": "uint256",
          "name": "newAmount",
          "type": "uint256"
        }
      ],
      "name": "WithdrawalAmountChanged",
      "type": "event"
    },
    {
      "inputs": [],
      "name": "lockTime",
      "outputs": [
        {
          "internalType": "uint256",
          "name": "",
          "type": "uint256"
        }
      ],
      "stateMutability": "view",
      "type": "function"
    },
    {
      "inputs": [],
      "name": "owner",
      "outputs": [
        {
          "internalType": "address",
          "name": "",
          "type": "address"
        }
      ],
      "stateMutability": "view",
      "type": "function"
    },
    {
      "inputs": [],
      "name": "requestTokens",
      "outputs": [],
      "stateMutability": "nonpayable",
      "type": "function"
    },
    {
      "inputs": [
        {
          "internalType": "uint256",
          "name": "newTime",
          "type": "uint256"
        }
      ],
      "name": "setLockTime",
      "outputs": [],
      "stateMutability": "nonpayable",
      "type": "function"
    },
    {
      "inputs": [
        {
          "internalType": "uint256",
          "name": "amount",
          "type": "uint256"
        }
      ],
      "name": "setWithdrawalAmount",
      "outputs": [],
      "stateMutability": "nonpayable",
      "type": "function"
    },
    {
      "inputs": [],
      "name": "withdraw",
      "outputs": [],
      "stateMutability": "nonpayable",
      "type": "function"
    },
    {
      "inputs": [],
      "name": "withdrawalAmount",
      "outputs": [
        {
          "internalType": "uint256",
          "name": "",
          "type": "uint256"
        }
      ],
      "stateMutability": "view",
      "type": "function"
    },
    {
      "stateMutability": "payable",
      "type": "receive"
    }
  ],
  "bytecode": "0x608060405266b1a2bc2ec500006001556202a30060025534801561002257600080fd5b50336000806101000a81548173ffffffffffffffffffffffffffffffffffffffff021916908373ffffffffffffffffffffffffffffffffffffffff1602179055506109ac806100726000396000f3fe6080604052600436106100745760003560e01c80633ccfd60b1161004e5780633ccfd60b146101395780638da5cb5b14610150578063ae04d45d1461017b578063e6e268f4146101a4576100c9565b80630d668087146100ce578063168ee33a146100f9578063359cf2b714610122576100c9565b366100c9573373ffffffffffffffffffffffffffffffffffffffff167fe1fffcc4923d04b559f4d29a8bfc6cda04eb5b0d3c460751c2402c5c5cc9109c346040516100bf9190610674565b60405180910390a2005b600080fd5b3480156100da57600080fd5b506100e36101cf565b6040516100f09190610674565b60405180910390f35b34801561010557600080fd5b50610120600480360381019061011b91906106c0565b6101d5565b005b34801561012e57600080fd5b506101376102ae565b005b34801561014557600080fd5b5061014e610461565b005b34801561015c57600080fd5b50610165610558565b604051610172919061072e565b60405180910390f35b34801561018757600080fd5b506101a2600480360381019061019d91906106c0565b61057c565b005b3480156101b057600080fd5b506101b9610655565b6040516101c69190610674565b60405180910390f35b60025481565b60008054906101000a900473ffffffffffffffffffffffffffffffffffffffff1673ffffffffffffffffffffffffffffffffffffffff163373ffffffffffffffffffffffffffffffffffffffff1614610263576040517f08c379a000000000000000000000000000000000000000000000000000000000815260040161025a906107cc565b60405180910390fd5b60006001549050816001819055507f144c23b32b964d2c832ad3419520af7592d13dfd3169efac8ba4dc9e51b09b9181836040516102a29291906107ec565b60405180910390a15050565b600254600360003373ffffffffffffffffffffffffffffffffffffffff1673ffffffffffffffffffffffffffffffffffffffff168152602001908152602001600020546102fb9190610844565b42101561033d576040517f08c379a0000000000000000000000000000000000000000000000000000000008152600401610334906108ea565b60405180910390fd5b600154471015610382576040517f08c379a000000000000000000000000000000000000000000000000000000000815260040161037990610956565b60405180910390fd5b42600360003373ffffffffffffffffffffffffffffffffffffffff1673ffffffffffffffffffffffffffffffffffffffff168152602001908152602001600020819055503373ffffffffffffffffffffffffffffffffffffffff166108fc6001549081150290604051600060405180830381858888f1935050505015801561040e573d6000803e3d6000fd5b503373ffffffffffffffffffffffffffffffffffffffff167f7fcf532c15f0a6db0bd6d0e038bea71d30d808c7d98cb3bf7268a95bf5081b656001546040516104579190610674565b60405180910390a2565b60008054906101000a900473ffffffffffffffffffffffffffffffffffffffff1673ffffffffffffffffffffffffffffffffffffffff163373ffffffffffffffffffffffffffffffffffffffff16146104ef576040517f08c379a00000000000000000000000000000000000000000000000000000000081526004016104e6906107cc565b60405180910390fd5b60008054906101000a900473ffffffffffffffffffffffffffffffffffffffff1673ffffffffffffffffffffffffffffffffffffffff166108fc479081150290604051600060405180830381858888f19350505050158015610555573d6000803e3d6000fd5b50565b60008054906101000a900473ffffffffffffffffffffffffffffffffffffffff1681565b60008054906101000a900473ffffffffffffffffffffffffffffffffffffffff1673ffffffffffffffffffffffffffffffffffffffff163373ffffffffffffffffffffffffffffffffffffffff161461060a576040517f08c379a0000000000000000000000000000000000000000000000000000000008152600401610601906107cc565b60405180910390fd5b60006002549050816002819055507f3dda0257c2dd400eb1edae8815f5516b5aa39797d44f3a2afe18d6e217cefa1281836040516106499291906107ec565b60405180910390a15050565b60015481565b6000819050919050565b61066e8161065b565b82525050565b60006020820190506106896000830184610665565b92915050565b600080fd5b61069d8161065b565b81146106a857600080fd5b50565b6000813590506106ba81610694565b92915050565b6000602082840312156106d6576106d561068f565b5b60006106e4848285016106ab565b91505092915050565b600073ffffffffffffffffffffffffffffffffffffffff82169050919050565b6000610718826106ed565b9050919050565b6107288161070d565b82525050565b6000602082019050610743600083018461071f565b92915050565b600082825260208201905092915050565b7f4f6e6c7920746865206f776e65722063616e2063616c6c20746869732066756e60008201527f6374696f6e000000000000000000000000000000000000000000000000000000602082015250565b60006107b6602583610749565b91506107c18261075a565b604082019050919050565b600060208201905081810360008301526107e5816107a9565b9050919050565b60006040820190506108016000830185610665565b61080e6020830184610665565b9392505050565b7f4e487b7100000000000000000000000000000000000000000000000000000000600052601160045260246000fd5b600061084f8261065b565b915061085a8361065b565b925082820190508082111561087257610871610815565b5b92915050565b7f4d757374207761697420322064617973206265747765656e207769746864726160008201527f77616c7300000000000000000000000000000000000000000000000000000000602082015250565b60006108d4602483610749565b91506108df82610878565b604082019050919050565b60006020820190508181036000830152610903816108c7565b9050919050565b7f46617563657420697320656d7074790000000000000000000000000000000000600082015250565b6000610940600f83610749565b915061094b8261090a565b602082019050919050565b6000602082019050818103600083015261096f81610933565b905091905056fea2646970667358221220d80551f13728d539eaedc37ab92921b395ecd62bd4d99140a546f7bad7e0e36264736f6c63430008180033",
  "linkReferences": {},
  "deployedLinkReferences": {}
}