{
  "_format": "hh-sol-artifact-1",
  "contractName": "SepoliaFaucet",
  "sourceName": "contracts/SepoliaFaucet.sol",
  "abi": [
    {
      "inputs": [
        {
          "internalType": "contract MinimalForwarder",
          "name": "forwarder",
          "type": "address"
        }
      ],
      "stateMutability": "nonpayable",
      "type": "constructor"
    },
    {
      "anonymous": false,
      "inputs": [
        {
          "indexed": true,
          "internalType": "address",
          "name": "from",
          "type": "address"
        },
        {
          "indexed": false,
          "internalType": "uint256",
          "name": "amount",
          "type": "uint256"
        }
      ],
      "name": "Deposit",
      "type": "event"
    },
    {
      "anonymous": false,
      "inputs": [
        {
          "indexed": false,
          "internalType": "uint256",
          "name": "oldTime",
          "type": "uint256"
        },
        {
          "indexed": false,
          "internalType": "uint256",
          "name": "newTime",
          "type": "uint256"
        }
      ],
      "name": "LockTimeChanged",
      "type": "event"
    },
    {
      "anonymous": false,
      "inputs": [
        {
          "indexed": true,
          "internalType": "address",
          "name": "to",
          "type": "address"
        },
        {
          "indexed": false,
          "internalType": "uint256",
          "name": "amount",
          "type": "uint256"
        }
      ],
      "name": "Withdrawal",
      "type": "event"
    },
    {
      "anonymous": false,
      "inputs": [
        {
          "indexed": false,
          "internalType": "uint256",
          "name": "oldAmount",
          "type": "uint256"
        },
        {
          "indexed": false,
          "internalType": "uint256",
          "name": "newAmount",
          "type": "uint256"
        }
      ],
      "name": "WithdrawalAmountChanged",
      "type": "event"
    },
    {
      "inputs": [
        {
          "internalType": "address",
          "name": "forwarder",
          "type": "address"
        }
      ],
      "name": "isTrustedForwarder",
      "outputs": [
        {
          "internalType": "bool",
          "name": "",
          "type": "bool"
        }
      ],
      "stateMutability": "view",
      "type": "function"
    },
    {
      "inputs": [],
      "name": "lockTime",
      "outputs": [
        {
          "internalType": "uint256",
          "name": "",
          "type": "uint256"
        }
      ],
      "stateMutability": "view",
      "type": "function"
    },
    {
      "inputs": [],
      "name": "owner",
      "outputs": [
        {
          "internalType": "address",
          "name": "",
          "type": "address"
        }
      ],
      "stateMutability": "view",
      "type": "function"
    },
    {
      "inputs": [],
      "name": "requestTokens",
      "outputs": [],
      "stateMutability": "nonpayable",
      "type": "function"
    },
    {
      "inputs": [
        {
          "internalType": "uint256",
          "name": "newTime",
          "type": "uint256"
        }
      ],
      "name": "setLockTime",
      "outputs": [],
      "stateMutability": "nonpayable",
      "type": "function"
    },
    {
      "inputs": [
        {
          "internalType": "uint256",
          "name": "amount",
          "type": "uint256"
        }
      ],
      "name": "setWithdrawalAmount",
      "outputs": [],
      "stateMutability": "nonpayable",
      "type": "function"
    },
    {
      "inputs": [],
      "name": "withdraw",
      "outputs": [],
      "stateMutability": "nonpayable",
      "type": "function"
    },
    {
      "inputs": [],
      "name": "withdrawalAmount",
      "outputs": [
        {
          "internalType": "uint256",
          "name": "",
          "type": "uint256"
        }
      ],
      "stateMutability": "view",
      "type": "function"
    },
    {
      "stateMutability": "payable",
      "type": "receive"
    }
  ],
  "bytecode": "0x60a0604052662386f26fc100006001556202a3006002553480156200002357600080fd5b5060405162000ea138038062000ea18339818101604052810190620000499190620001ec565b808073ffffffffffffffffffffffffffffffffffffffff1660808173ffffffffffffffffffffffffffffffffffffffff1681525050506200008f620000d560201b60201c565b6000806101000a81548173ffffffffffffffffffffffffffffffffffffffff021916908373ffffffffffffffffffffffffffffffffffffffff160217905550506200021e565b6000620000e8336200012c60201b60201c565b8015620000fa57506014600036905010155b156200011057601436033560601c905062000128565b620001206200016660201b60201c565b905062000129565b5b90565b600060805173ffffffffffffffffffffffffffffffffffffffff168273ffffffffffffffffffffffffffffffffffffffff16149050919050565b600033905090565b600080fd5b600073ffffffffffffffffffffffffffffffffffffffff82169050919050565b6000620001a08262000173565b9050919050565b6000620001b48262000193565b9050919050565b620001c681620001a7565b8114620001d257600080fd5b50565b600081519050620001e681620001bb565b92915050565b6000602082840312156200020557620002046200016e565b5b60006200021584828501620001d5565b91505092915050565b608051610c676200023a600039600061066f0152610c676000f3fe60806040526004361061007f5760003560e01c8063572b6c051161004e578063572b6c05146101625780638da5cb5b1461019f578063ae04d45d146101ca578063e6e268f4146101f3576100db565b80630d668087146100e0578063168ee33a1461010b578063359cf2b7146101345780633ccfd60b1461014b576100db565b366100db5761008c61021e565b73ffffffffffffffffffffffffffffffffffffffff167fe1fffcc4923d04b559f4d29a8bfc6cda04eb5b0d3c460751c2402c5c5cc9109c346040516100d191906107ee565b60405180910390a2005b600080fd5b3480156100ec57600080fd5b506100f5610261565b60405161010291906107ee565b60405180910390f35b34801561011757600080fd5b50610132600480360381019061012d919061083a565b610267565b005b34801561014057600080fd5b50610149610347565b005b34801561015757600080fd5b5061016061056d565b005b34801561016e57600080fd5b50610189600480360381019061018491906108c5565b61066b565b604051610196919061090d565b60405180910390f35b3480156101ab57600080fd5b506101b46106c3565b6040516101c19190610937565b60405180910390f35b3480156101d657600080fd5b506101f160048036038101906101ec919061083a565b6106e7565b005b3480156101ff57600080fd5b506102086107c7565b60405161021591906107ee565b60405180910390f35b60006102293361066b565b801561023a57506014600036905010155b1561024e57601436033560601c905061025d565b6102566107cd565b905061025e565b5b90565b60025481565b60008054906101000a900473ffffffffffffffffffffffffffffffffffffffff1673ffffffffffffffffffffffffffffffffffffffff166102a661021e565b73ffffffffffffffffffffffffffffffffffffffff16146102fc576040517f08c379a00000000000000000000000000000000000000000000000000000000081526004016102f3906109d5565b60405180910390fd5b60006001549050816001819055507f144c23b32b964d2c832ad3419520af7592d13dfd3169efac8ba4dc9e51b09b91818360405161033b9291906109f5565b60405180910390a15050565b600061035161021e565b9050600254600360008373ffffffffffffffffffffffffffffffffffffffff1673ffffffffffffffffffffffffffffffffffffffff168152602001908152602001600020546103a09190610a4d565b4210156103e2576040517f08c379a00000000000000000000000000000000000000000000000000000000081526004016103d990610af3565b60405180910390fd5b600154471015610427576040517f08c379a000000000000000000000000000000000000000000000000000000000815260040161041e90610b5f565b60405180910390fd5b42600360008373ffffffffffffffffffffffffffffffffffffffff1673ffffffffffffffffffffffffffffffffffffffff1681526020019081526020016000208190555060008173ffffffffffffffffffffffffffffffffffffffff1660015460405161049390610bb0565b60006040518083038185875af1925050503d80600081146104d0576040519150601f19603f3d011682016040523d82523d6000602084013e6104d5565b606091505b5050905080610519576040517f08c379a000000000000000000000000000000000000000000000000000000000815260040161051090610c11565b60405180910390fd5b8173ffffffffffffffffffffffffffffffffffffffff167f7fcf532c15f0a6db0bd6d0e038bea71d30d808c7d98cb3bf7268a95bf5081b6560015460405161056191906107ee565b60405180910390a25050565b60008054906101000a900473ffffffffffffffffffffffffffffffffffffffff1673ffffffffffffffffffffffffffffffffffffffff166105ac61021e565b73ffffffffffffffffffffffffffffffffffffffff1614610602576040517f08c379a00000000000000000000000000000000000000000000000000000000081526004016105f9906109d5565b60405180910390fd5b60008054906101000a900473ffffffffffffffffffffffffffffffffffffffff1673ffffffffffffffffffffffffffffffffffffffff166108fc479081150290604051600060405180830381858888f19350505050158015610668573d6000803e3d6000fd5b50565b60007f000000000000000000000000000000000000000000000000000000000000000073ffffffffffffffffffffffffffffffffffffffff168273ffffffffffffffffffffffffffffffffffffffff16149050919050565b60008054906101000a900473ffffffffffffffffffffffffffffffffffffffff1681565b60008054906101000a900473ffffffffffffffffffffffffffffffffffffffff1673ffffffffffffffffffffffffffffffffffffffff1661072661021e565b73ffffffffffffffffffffffffffffffffffffffff161461077c576040517f08c379a0000000000000000000000000000000000000000000000000000000008152600401610773906109d5565b60405180910390fd5b60006002549050816002819055507f3dda0257c2dd400eb1edae8815f5516b5aa39797d44f3a2afe18d6e217cefa1281836040516107bb9291906109f5565b60405180910390a15050565b60015481565b600033905090565b6000819050919050565b6107e8816107d5565b82525050565b600060208201905061080360008301846107df565b92915050565b600080fd5b610817816107d5565b811461082257600080fd5b50565b6000813590506108348161080e565b92915050565b6000602082840312156108505761084f610809565b5b600061085e84828501610825565b91505092915050565b600073ffffffffffffffffffffffffffffffffffffffff82169050919050565b600061089282610867565b9050919050565b6108a281610887565b81146108ad57600080fd5b50565b6000813590506108bf81610899565b92915050565b6000602082840312156108db576108da610809565b5b60006108e9848285016108b0565b91505092915050565b60008115159050919050565b610907816108f2565b82525050565b600060208201905061092260008301846108fe565b92915050565b61093181610887565b82525050565b600060208201905061094c6000830184610928565b92915050565b600082825260208201905092915050565b7f4f6e6c7920746865206f776e65722063616e2063616c6c20746869732066756e60008201527f6374696f6e000000000000000000000000000000000000000000000000000000602082015250565b60006109bf602583610952565b91506109ca82610963565b604082019050919050565b600060208201905081810360008301526109ee816109b2565b9050919050565b6000604082019050610a0a60008301856107df565b610a1760208301846107df565b9392505050565b7f4e487b7100000000000000000000000000000000000000000000000000000000600052601160045260246000fd5b6000610a58826107d5565b9150610a63836107d5565b9250828201905080821115610a7b57610a7a610a1e565b5b92915050565b7f4d757374207761697420322064617973206265747765656e207769746864726160008201527f77616c7300000000000000000000000000000000000000000000000000000000602082015250565b6000610add602483610952565b9150610ae882610a81565b604082019050919050565b60006020820190508181036000830152610b0c81610ad0565b9050919050565b7f46617563657420697320656d7074790000000000000000000000000000000000600082015250565b6000610b49600f83610952565b9150610b5482610b13565b602082019050919050565b60006020820190508181036000830152610b7881610b3c565b9050919050565b600081905092915050565b50565b6000610b9a600083610b7f565b9150610ba582610b8a565b600082019050919050565b6000610bbb82610b8d565b9150819050919050565b7f5472616e73666572206661696c65640000000000000000000000000000000000600082015250565b6000610bfb600f83610952565b9150610c0682610bc5565b602082019050919050565b60006020820190508181036000830152610c2a81610bee565b905091905056fea26469706673582212207ad66e4ab3e517b7b36853ef469aac652a011e5963989b89146baf4586f2357c64736f6c63430008180033",
  "linkReferences": {},
  "deployedLinkReferences": {}
}