{
  "_format": "hh-sol-artifact-1",
  "contractName": "TouristNFT",
  "sourceName": "contracts/TouristNFT.sol",
  "abi": [
    {
      "inputs": [],
      "stateMutability": "nonpayable",
      "type": "constructor"
    },
    {
      "anonymous": false,
      "inputs": [
        {
          "indexed": true,
          "internalType": "address",
          "name": "owner",
          "type": "address"
        },
        {
          "indexed": true,
          "internalType": "address",
          "name": "approved",
          "type": "address"
        },
        {
          "indexed": true,
          "internalType": "uint256",
          "name": "tokenId",
          "type": "uint256"
        }
      ],
      "name": "Approval",
      "type": "event"
    },
    {
      "anonymous": false,
      "inputs": [
        {
          "indexed": true,
          "internalType": "address",
          "name": "owner",
          "type": "address"
        },
        {
          "indexed": true,
          "internalType": "address",
          "name": "operator",
          "type": "address"
        },
        {
          "indexed": false,
          "internalType": "bool",
          "name": "approved",
          "type": "bool"
        }
      ],
      "name": "ApprovalForAll",
      "type": "event"
    },
    {
      "anonymous": false,
      "inputs": [
        {
          "indexed": false,
          "internalType": "uint256",
          "name": "_fromTokenId",
          "type": "uint256"
        },
        {
          "indexed": false,
          "internalType": "uint256",
          "name": "_toTokenId",
          "type": "uint256"
        }
      ],
      "name": "BatchMetadataUpdate",
      "type": "event"
    },
    {
      "anonymous": false,
      "inputs": [
        {
          "indexed": false,
          "internalType": "uint256",
          "name": "locationId",
          "type": "uint256"
        },
        {
          "indexed": false,
          "internalType": "uint256",
          "name": "dailyMintLimit",
          "type": "uint256"
        }
      ],
      "name": "LocationAdded",
      "type": "event"
    },
    {
      "anonymous": false,
      "inputs": [
        {
          "indexed": false,
          "internalType": "uint256",
          "name": "_tokenId",
          "type": "uint256"
        }
      ],
      "name": "MetadataUpdate",
      "type": "event"
    },
    {
      "anonymous": false,
      "inputs": [
        {
          "indexed": false,
          "internalType": "uint256",
          "name": "tokenId",
          "type": "uint256"
        },
        {
          "indexed": false,
          "internalType": "uint256",
          "name": "locationId",
          "type": "uint256"
        },
        {
          "indexed": false,
          "internalType": "address",
          "name": "recipient",
          "type": "address"
        },
        {
          "indexed": false,
          "internalType": "uint256",
          "name": "timestamp",
          "type": "uint256"
        },
        {
          "indexed": false,
          "internalType": "string",
          "name": "tokenURI",
          "type": "string"
        }
      ],
      "name": "NFTMinted",
      "type": "event"
    },
    {
      "anonymous": false,
      "inputs": [
        {
          "indexed": true,
          "internalType": "address",
          "name": "previousOwner",
          "type": "address"
        },
        {
          "indexed": true,
          "internalType": "address",
          "name": "newOwner",
          "type": "address"
        }
      ],
      "name": "OwnershipTransferred",
      "type": "event"
    },
    {
      "anonymous": false,
      "inputs": [
        {
          "indexed": true,
          "internalType": "address",
          "name": "from",
          "type": "address"
        },
        {
          "indexed": true,
          "internalType": "address",
          "name": "to",
          "type": "address"
        },
        {
          "indexed": true,
          "internalType": "uint256",
          "name": "tokenId",
          "type": "uint256"
        }
      ],
      "name": "Transfer",
      "type": "event"
    },
    {
      "inputs": [
        {
          "internalType": "uint256",
          "name": "locationId",
          "type": "uint256"
        },
        {
          "internalType": "uint256",
          "name": "dailyMintLimit",
          "type": "uint256"
        }
      ],
      "name": "addLocation",
      "outputs": [],
      "stateMutability": "nonpayable",
      "type": "function"
    },
    {
      "inputs": [
        {
          "internalType": "address",
          "name": "to",
          "type": "address"
        },
        {
          "internalType": "uint256",
          "name": "tokenId",
          "type": "uint256"
        }
      ],
      "name": "approve",
      "outputs": [],
      "stateMutability": "nonpayable",
      "type": "function"
    },
    {
      "inputs": [
        {
          "internalType": "address",
          "name": "owner",
          "type": "address"
        }
      ],
      "name": "balanceOf",
      "outputs": [
        {
          "internalType": "uint256",
          "name": "",
          "type": "uint256"
        }
      ],
      "stateMutability": "view",
      "type": "function"
    },
    {
      "inputs": [
        {
          "internalType": "uint256",
          "name": "tokenId",
          "type": "uint256"
        }
      ],
      "name": "burn",
      "outputs": [],
      "stateMutability": "nonpayable",
      "type": "function"
    },
    {
      "inputs": [],
      "name": "getAllLocationIds",
      "outputs": [
        {
          "internalType": "uint256[]",
          "name": "",
          "type": "uint256[]"
        }
      ],
      "stateMutability": "view",
      "type": "function"
    },
    {
      "inputs": [
        {
          "internalType": "uint256",
          "name": "tokenId",
          "type": "uint256"
        }
      ],
      "name": "getApproved",
      "outputs": [
        {
          "internalType": "address",
          "name": "",
          "type": "address"
        }
      ],
      "stateMutability": "view",
      "type": "function"
    },
    {
      "inputs": [
        {
          "internalType": "uint256",
          "name": "locationId",
          "type": "uint256"
        }
      ],
      "name": "getDailyMintCount",
      "outputs": [
        {
          "internalType": "uint256",
          "name": "",
          "type": "uint256"
        }
      ],
      "stateMutability": "view",
      "type": "function"
    },
    {
      "inputs": [],
      "name": "initializeLocations",
      "outputs": [],
      "stateMutability": "nonpayable",
      "type": "function"
    },
    {
      "inputs": [
        {
          "internalType": "address",
          "name": "owner",
          "type": "address"
        },
        {
          "internalType": "address",
          "name": "operator",
          "type": "address"
        }
      ],
      "name": "isApprovedForAll",
      "outputs": [
        {
          "internalType": "bool",
          "name": "",
          "type": "bool"
        }
      ],
      "stateMutability": "view",
      "type": "function"
    },
    {
      "inputs": [
        {
          "internalType": "uint256",
          "name": "",
          "type": "uint256"
        }
      ],
      "name": "locations",
      "outputs": [
        {
          "internalType": "uint256",
          "name": "dailyMintLimit",
          "type": "uint256"
        }
      ],
      "stateMutability": "view",
      "type": "function"
    },
    {
      "inputs": [
        {
          "internalType": "uint256",
          "name": "locationId",
          "type": "uint256"
        },
        {
          "internalType": "string",
          "name": "_tokenURI",
          "type": "string"
        }
      ],
      "name": "mint",
      "outputs": [],
      "stateMutability": "nonpayable",
      "type": "function"
    },
    {
      "inputs": [],
      "name": "name",
      "outputs": [
        {
          "internalType": "string",
          "name": "",
          "type": "string"
        }
      ],
      "stateMutability": "view",
      "type": "function"
    },
    {
      "inputs": [],
      "name": "owner",
      "outputs": [
        {
          "internalType": "address",
          "name": "",
          "type": "address"
        }
      ],
      "stateMutability": "view",
      "type": "function"
    },
    {
      "inputs": [
        {
          "internalType": "uint256",
          "name": "tokenId",
          "type": "uint256"
        }
      ],
      "name": "ownerOf",
      "outputs": [
        {
          "internalType": "address",
          "name": "",
          "type": "address"
        }
      ],
      "stateMutability": "view",
      "type": "function"
    },
    {
      "inputs": [],
      "name": "renounceOwnership",
      "outputs": [],
      "stateMutability": "nonpayable",
      "type": "function"
    },
    {
      "inputs": [
        {
          "internalType": "address",
          "name": "from",
          "type": "address"
        },
        {
          "internalType": "address",
          "name": "to",
          "type": "address"
        },
        {
          "internalType": "uint256",
          "name": "tokenId",
          "type": "uint256"
        }
      ],
      "name": "safeTransferFrom",
      "outputs": [],
      "stateMutability": "nonpayable",
      "type": "function"
    },
    {
      "inputs": [
        {
          "internalType": "address",
          "name": "from",
          "type": "address"
        },
        {
          "internalType": "address",
          "name": "to",
          "type": "address"
        },
        {
          "internalType": "uint256",
          "name": "tokenId",
          "type": "uint256"
        },
        {
          "internalType": "bytes",
          "name": "data",
          "type": "bytes"
        }
      ],
      "name": "safeTransferFrom",
      "outputs": [],
      "stateMutability": "nonpayable",
      "type": "function"
    },
    {
      "inputs": [
        {
          "internalType": "address",
          "name": "operator",
          "type": "address"
        },
        {
          "internalType": "bool",
          "name": "approved",
          "type": "bool"
        }
      ],
      "name": "setApprovalForAll",
      "outputs": [],
      "stateMutability": "nonpayable",
      "type": "function"
    },
    {
      "inputs": [
        {
          "internalType": "bytes4",
          "name": "interfaceId",
          "type": "bytes4"
        }
      ],
      "name": "supportsInterface",
      "outputs": [
        {
          "internalType": "bool",
          "name": "",
          "type": "bool"
        }
      ],
      "stateMutability": "view",
      "type": "function"
    },
    {
      "inputs": [],
      "name": "symbol",
      "outputs": [
        {
          "internalType": "string",
          "name": "",
          "type": "string"
        }
      ],
      "stateMutability": "view",
      "type": "function"
    },
    {
      "inputs": [
        {
          "internalType": "uint256",
          "name": "index",
          "type": "uint256"
        }
      ],
      "name": "tokenByIndex",
      "outputs": [
        {
          "internalType": "uint256",
          "name": "",
          "type": "uint256"
        }
      ],
      "stateMutability": "view",
      "type": "function"
    },
    {
      "inputs": [
        {
          "internalType": "address",
          "name": "owner",
          "type": "address"
        },
        {
          "internalType": "uint256",
          "name": "index",
          "type": "uint256"
        }
      ],
      "name": "tokenOfOwnerByIndex",
      "outputs": [
        {
          "internalType": "uint256",
          "name": "",
          "type": "uint256"
        }
      ],
      "stateMutability": "view",
      "type": "function"
    },
    {
      "inputs": [
        {
          "internalType": "uint256",
          "name": "tokenId",
          "type": "uint256"
        }
      ],
      "name": "tokenURI",
      "outputs": [
        {
          "internalType": "string",
          "name": "",
          "type": "string"
        }
      ],
      "stateMutability": "view",
      "type": "function"
    },
    {
      "inputs": [],
      "name": "totalSupply",
      "outputs": [
        {
          "internalType": "uint256",
          "name": "",
          "type": "uint256"
        }
      ],
      "stateMutability": "view",
      "type": "function"
    },
    {
      "inputs": [
        {
          "internalType": "address",
          "name": "from",
          "type": "address"
        },
        {
          "internalType": "address",
          "name": "to",
          "type": "address"
        },
        {
          "internalType": "uint256",
          "name": "tokenId",
          "type": "uint256"
        }
      ],
      "name": "transferFrom",
      "outputs": [],
      "stateMutability": "nonpayable",
      "type": "function"
    },
    {
      "inputs": [
        {
          "internalType": "address",
          "name": "newOwner",
          "type": "address"
        }
      ],
      "name": "transferOwnership",
      "outputs": [],
      "stateMutability": "nonpayable",
      "type": "function"
    }
  ],
  "bytecode": "0x60806040523480156200001157600080fd5b506040518060400160405280600a81526020017f546f75726973744e4654000000000000000000000000000000000000000000008152506040518060400160405280600481526020017f544e46540000000000000000000000000000000000000000000000000000000081525081600090816200008f919062000412565b508060019081620000a1919062000412565b505050620000c4620000b8620000ca60201b60201c565b620000d260201b60201c565b620004f9565b600033905090565b6000600b60009054906101000a900473ffffffffffffffffffffffffffffffffffffffff16905081600b60006101000a81548173ffffffffffffffffffffffffffffffffffffffff021916908373ffffffffffffffffffffffffffffffffffffffff1602179055508173ffffffffffffffffffffffffffffffffffffffff168173ffffffffffffffffffffffffffffffffffffffff167f8be0079c531659141344cd1fd0a4f28419497f9722a3daafe3b4186f6b6457e060405160405180910390a35050565b600081519050919050565b7f4e487b7100000000000000000000000000000000000000000000000000000000600052604160045260246000fd5b7f4e487b7100000000000000000000000000000000000000000000000000000000600052602260045260246000fd5b600060028204905060018216806200021a57607f821691505b60208210810362000230576200022f620001d2565b5b50919050565b60008190508160005260206000209050919050565b60006020601f8301049050919050565b600082821b905092915050565b6000600883026200029a7fffffffffffffffffffffffffffffffffffffffffffffffffffffffffffffffff826200025b565b620002a686836200025b565b95508019841693508086168417925050509392505050565b6000819050919050565b6000819050919050565b6000620002f3620002ed620002e784620002be565b620002c8565b620002be565b9050919050565b6000819050919050565b6200030f83620002d2565b620003276200031e82620002fa565b84845462000268565b825550505050565b600090565b6200033e6200032f565b6200034b81848462000304565b505050565b5b8181101562000373576200036760008262000334565b60018101905062000351565b5050565b601f821115620003c2576200038c8162000236565b62000397846200024b565b81016020851015620003a7578190505b620003bf620003b6856200024b565b83018262000350565b50505b505050565b600082821c905092915050565b6000620003e760001984600802620003c7565b1980831691505092915050565b6000620004028383620003d4565b9150826002028217905092915050565b6200041d8262000198565b67ffffffffffffffff811115620004395762000438620001a3565b5b62000445825462000201565b6200045282828562000377565b600060209050601f8311600181146200048a576000841562000475578287015190505b620004818582620003f4565b865550620004f1565b601f1984166200049a8662000236565b60005b82811015620004c4578489015182556001820191506020850194506020810190506200049d565b86831015620004e45784890151620004e0601f891682620003d4565b8355505b6001600288020188555050505b505050505050565b61449480620005096000396000f3fe608060405234801561001057600080fd5b506004361061018e5760003560e01c80636352211e116100de578063a22cb46511610097578063c87b56dd11610071578063c87b56dd1461046d578063d6503af81461049d578063e985e9c5146104cd578063f2fde38b146104fd5761018e565b8063a22cb46514610405578063b88d4fde14610421578063b9e0db351461043d5761018e565b80636352211e1461034357806370a0823114610373578063715018a6146103a357806377097fc8146103ad5780638da5cb5b146103c957806395d89b41146103e75761018e565b806323b872dd1161014b57806342842e0e1161012557806342842e0e146102bf57806342966c68146102db5780634f6ccce7146102f757806350e2304c146103275761018e565b806323b872dd146102695780632f745c591461028557806331ba2dbc146102b55761018e565b806301ffc9a71461019357806306fdde03146101c3578063081812fc146101e1578063095ea7b31461021157806318160ddd1461022d5780631fc27d531461024b575b600080fd5b6101ad60048036038101906101a89190612b8a565b610519565b6040516101ba9190612bd2565b60405180910390f35b6101cb61052b565b6040516101d89190612c7d565b60405180910390f35b6101fb60048036038101906101f69190612cd5565b6105bd565b6040516102089190612d43565b60405180910390f35b61022b60048036038101906102269190612d8a565b610603565b005b61023561071a565b6040516102429190612dd9565b60405180910390f35b610253610727565b6040516102609190612eb2565b60405180910390f35b610283600480360381019061027e9190612ed4565b61077f565b005b61029f600480360381019061029a9190612d8a565b6107df565b6040516102ac9190612dd9565b60405180910390f35b6102bd610884565b005b6102d960048036038101906102d49190612ed4565b6108db565b005b6102f560048036038101906102f09190612cd5565b6108fb565b005b610311600480360381019061030c9190612cd5565b610957565b60405161031e9190612dd9565b60405180910390f35b610341600480360381019061033c9190612f27565b6109c8565b005b61035d60048036038101906103589190612cd5565b610aaa565b60405161036a9190612d43565b60405180910390f35b61038d60048036038101906103889190612f67565b610b30565b60405161039a9190612dd9565b60405180910390f35b6103ab610be7565b005b6103c760048036038101906103c291906130c9565b610bfb565b005b6103d1610dfe565b6040516103de9190612d43565b60405180910390f35b6103ef610e28565b6040516103fc9190612c7d565b60405180910390f35b61041f600480360381019061041a9190613151565b610eba565b005b61043b60048036038101906104369190613232565b610ed0565b005b61045760048036038101906104529190612cd5565b610f32565b6040516104649190612dd9565b60405180910390f35b61048760048036038101906104829190612cd5565b610f50565b6040516104949190612c7d565b60405180910390f35b6104b760048036038101906104b29190612cd5565b610f62565b6040516104c49190612dd9565b60405180910390f35b6104e760048036038101906104e291906132b5565b610fa6565b6040516104f49190612bd2565b60405180910390f35b61051760048036038101906105129190612f67565b61103a565b005b6000610524826110bd565b9050919050565b60606000805461053a90613324565b80601f016020809104026020016040519081016040528092919081815260200182805461056690613324565b80156105b35780601f10610588576101008083540402835291602001916105b3565b820191906000526020600020905b81548152906001019060200180831161059657829003601f168201915b5050505050905090565b60006105c88261111e565b6004600083815260200190815260200160002060009054906101000a900473ffffffffffffffffffffffffffffffffffffffff169050919050565b600061060e82610aaa565b90508073ffffffffffffffffffffffffffffffffffffffff168373ffffffffffffffffffffffffffffffffffffffff160361067e576040517f08c379a0000000000000000000000000000000000000000000000000000000008152600401610675906133c7565b60405180910390fd5b8073ffffffffffffffffffffffffffffffffffffffff1661069d611169565b73ffffffffffffffffffffffffffffffffffffffff1614806106cc57506106cb816106c6611169565b610fa6565b5b61070b576040517f08c379a000000000000000000000000000000000000000000000000000000000815260040161070290613459565b60405180910390fd5b6107158383611171565b505050565b6000600880549050905090565b6060600f80548060200260200160405190810160405280929190818152602001828054801561077557602002820191906000526020600020905b815481526020019060010190808311610761575b5050505050905090565b61079061078a611169565b8261122a565b6107cf576040517f08c379a00000000000000000000000000000000000000000000000000000000081526004016107c6906134eb565b60405180910390fd5b6107da8383836112bf565b505050565b60006107ea83610b30565b821061082b576040517f08c379a00000000000000000000000000000000000000000000000000000000081526004016108229061357d565b60405180910390fd5b600660008473ffffffffffffffffffffffffffffffffffffffff1673ffffffffffffffffffffffffffffffffffffffff168152602001908152602001600020600083815260200190815260200160002054905092915050565b61088c6115b8565b6000600190505b600a81116108d8576000600d600083815260200190815260200160002060000154036108c5576108c481600a6109c8565b5b80806108d0906135cc565b915050610893565b50565b6108f683838360405180602001604052806000815250610ed0565b505050565b61090c610906611169565b8261122a565b61094b576040517f08c379a000000000000000000000000000000000000000000000000000000000815260040161094290613660565b60405180910390fd5b61095481611636565b50565b600061096161071a565b82106109a2576040517f08c379a0000000000000000000000000000000000000000000000000000000008152600401610999906136f2565b60405180910390fd5b600882815481106109b6576109b5613712565b5b90600052602060002001549050919050565b6109d06115b8565b6000600d60008481526020019081526020016000206000015414610a29576040517f08c379a0000000000000000000000000000000000000000000000000000000008152600401610a209061378d565b60405180910390fd5b80600d600084815260200190815260200160002060000181905550600f8290806001815401808255809150506001900390600052602060002001600090919091909150557f4fe296729239935ed5fdee6ae0b96ee916574dca066718fa9fbaba375cd3fd078282604051610a9e9291906137ad565b60405180910390a15050565b600080610ab683611642565b9050600073ffffffffffffffffffffffffffffffffffffffff168173ffffffffffffffffffffffffffffffffffffffff1603610b27576040517f08c379a0000000000000000000000000000000000000000000000000000000008152600401610b1e90613822565b60405180910390fd5b80915050919050565b60008073ffffffffffffffffffffffffffffffffffffffff168273ffffffffffffffffffffffffffffffffffffffff1603610ba0576040517f08c379a0000000000000000000000000000000000000000000000000000000008152600401610b97906138b4565b60405180910390fd5b600360008373ffffffffffffffffffffffffffffffffffffffff1673ffffffffffffffffffffffffffffffffffffffff168152602001908152602001600020549050919050565b610bef6115b8565b610bf9600061167f565b565b6000600d60008481526020019081526020016000206000015411610c54576040517f08c379a0000000000000000000000000000000000000000000000000000000008152600401610c4b90613920565b60405180910390fd5b610c5d82611745565b610c9c576040517f08c379a0000000000000000000000000000000000000000000000000000000008152600401610c93906139b2565b60405180910390fd5b610ca682336117a1565b610ce5576040517f08c379a0000000000000000000000000000000000000000000000000000000008152600401610cdc90613a44565b60405180910390fd5b6000610cf1600c611815565b9050610cfd600c611823565b610d073382611839565b610d118183611857565b60006201518042610d229190613a93565b9050600d600085815260200190815260200160002060010160008281526020019081526020016000206000815480929190610d5c906135cc565b919050555080600d600086815260200190815260200160002060020160003373ffffffffffffffffffffffffffffffffffffffff1673ffffffffffffffffffffffffffffffffffffffff168152602001908152602001600020819055507f1993d960236f0e88f2a6f20267f77cf257e71924c31190d72b1446e322b893168285334287604051610df0959493929190613ac4565b60405180910390a150505050565b6000600b60009054906101000a900473ffffffffffffffffffffffffffffffffffffffff16905090565b606060018054610e3790613324565b80601f0160208091040260200160405190810160405280929190818152602001828054610e6390613324565b8015610eb05780601f10610e8557610100808354040283529160200191610eb0565b820191906000526020600020905b815481529060010190602001808311610e9357829003601f168201915b5050505050905090565b610ecc610ec5611169565b83836118fb565b5050565b610ee1610edb611169565b8361122a565b610f20576040517f08c379a0000000000000000000000000000000000000000000000000000000008152600401610f17906134eb565b60405180910390fd5b610f2c84848484611a67565b50505050565b600d6020528060005260406000206000915090508060000154905081565b6060610f5b82611ac3565b9050919050565b6000806201518042610f749190613a93565b9050600d6000848152602001908152602001600020600101600082815260200190815260200160002054915050919050565b6000600560008473ffffffffffffffffffffffffffffffffffffffff1673ffffffffffffffffffffffffffffffffffffffff16815260200190815260200160002060008373ffffffffffffffffffffffffffffffffffffffff1673ffffffffffffffffffffffffffffffffffffffff16815260200190815260200160002060009054906101000a900460ff16905092915050565b6110426115b8565b600073ffffffffffffffffffffffffffffffffffffffff168173ffffffffffffffffffffffffffffffffffffffff16036110b1576040517f08c379a00000000000000000000000000000000000000000000000000000000081526004016110a890613b90565b60405180910390fd5b6110ba8161167f565b50565b6000634906490660e01b7bffffffffffffffffffffffffffffffffffffffffffffffffffffffff1916827bffffffffffffffffffffffffffffffffffffffffffffffffffffffff19161480611117575061111682611bd5565b5b9050919050565b61112781611c4f565b611166576040517f08c379a000000000000000000000000000000000000000000000000000000000815260040161115d90613822565b60405180910390fd5b50565b600033905090565b816004600083815260200190815260200160002060006101000a81548173ffffffffffffffffffffffffffffffffffffffff021916908373ffffffffffffffffffffffffffffffffffffffff160217905550808273ffffffffffffffffffffffffffffffffffffffff166111e483610aaa565b73ffffffffffffffffffffffffffffffffffffffff167f8c5be1e5ebec7d5bd14f71427d1e84f3dd0314c0f7b2291e5b200ac8c7c3b92560405160405180910390a45050565b60008061123683610aaa565b90508073ffffffffffffffffffffffffffffffffffffffff168473ffffffffffffffffffffffffffffffffffffffff16148061127857506112778185610fa6565b5b806112b657508373ffffffffffffffffffffffffffffffffffffffff1661129e846105bd565b73ffffffffffffffffffffffffffffffffffffffff16145b91505092915050565b8273ffffffffffffffffffffffffffffffffffffffff166112df82610aaa565b73ffffffffffffffffffffffffffffffffffffffff1614611335576040517f08c379a000000000000000000000000000000000000000000000000000000000815260040161132c90613c22565b60405180910390fd5b600073ffffffffffffffffffffffffffffffffffffffff168273ffffffffffffffffffffffffffffffffffffffff16036113a4576040517f08c379a000000000000000000000000000000000000000000000000000000000815260040161139b90613cb4565b60405180910390fd5b6113b18383836001611c90565b8273ffffffffffffffffffffffffffffffffffffffff166113d182610aaa565b73ffffffffffffffffffffffffffffffffffffffff1614611427576040517f08c379a000000000000000000000000000000000000000000000000000000000815260040161141e90613c22565b60405180910390fd5b6004600082815260200190815260200160002060006101000a81549073ffffffffffffffffffffffffffffffffffffffff02191690556001600360008573ffffffffffffffffffffffffffffffffffffffff1673ffffffffffffffffffffffffffffffffffffffff168152602001908152602001600020600082825403925050819055506001600360008473ffffffffffffffffffffffffffffffffffffffff1673ffffffffffffffffffffffffffffffffffffffff16815260200190815260200160002060008282540192505081905550816002600083815260200190815260200160002060006101000a81548173ffffffffffffffffffffffffffffffffffffffff021916908373ffffffffffffffffffffffffffffffffffffffff160217905550808273ffffffffffffffffffffffffffffffffffffffff168473ffffffffffffffffffffffffffffffffffffffff167fddf252ad1be2c89b69c2b068fc378daa952ba7f163c4a11628f55a4df523b3ef60405160405180910390a46115b38383836001611ca2565b505050565b6115c0611169565b73ffffffffffffffffffffffffffffffffffffffff166115de610dfe565b73ffffffffffffffffffffffffffffffffffffffff1614611634576040517f08c379a000000000000000000000000000000000000000000000000000000000815260040161162b90613d20565b60405180910390fd5b565b61163f81611ca8565b50565b60006002600083815260200190815260200160002060009054906101000a900473ffffffffffffffffffffffffffffffffffffffff169050919050565b6000600b60009054906101000a900473ffffffffffffffffffffffffffffffffffffffff16905081600b60006101000a81548173ffffffffffffffffffffffffffffffffffffffff021916908373ffffffffffffffffffffffffffffffffffffffff1602179055508173ffffffffffffffffffffffffffffffffffffffff168173ffffffffffffffffffffffffffffffffffffffff167f8be0079c531659141344cd1fd0a4f28419497f9722a3daafe3b4186f6b6457e060405160405180910390a35050565b60008062015180426117579190613a93565b9050600d600084815260200190815260200160002060000154600d600085815260200190815260200160002060010160008381526020019081526020016000205410915050919050565b60008062015180426117b39190613a93565b905080600d600086815260200190815260200160002060020160008573ffffffffffffffffffffffffffffffffffffffff1673ffffffffffffffffffffffffffffffffffffffff16815260200190815260200160002054141591505092915050565b600081600001549050919050565b6001816000016000828254019250508190555050565b611853828260405180602001604052806000815250611cfb565b5050565b61186082611c4f565b61189f576040517f08c379a000000000000000000000000000000000000000000000000000000000815260040161189690613db2565b60405180910390fd5b80600a600084815260200190815260200160002090816118bf9190613f7e565b507ff8e1a15aba9398e019f0b49df1a4fde98ee17ae345cb5f6b5e2c27f5033e8ce7826040516118ef9190612dd9565b60405180910390a15050565b8173ffffffffffffffffffffffffffffffffffffffff168373ffffffffffffffffffffffffffffffffffffffff1603611969576040517f08c379a00000000000000000000000000000000000000000000000000000000081526004016119609061409c565b60405180910390fd5b80600560008573ffffffffffffffffffffffffffffffffffffffff1673ffffffffffffffffffffffffffffffffffffffff16815260200190815260200160002060008473ffffffffffffffffffffffffffffffffffffffff1673ffffffffffffffffffffffffffffffffffffffff16815260200190815260200160002060006101000a81548160ff0219169083151502179055508173ffffffffffffffffffffffffffffffffffffffff168373ffffffffffffffffffffffffffffffffffffffff167f17307eab39ab6107e8899845ad3d59bd9653f200f220920489ca2b5937696c3183604051611a5a9190612bd2565b60405180910390a3505050565b611a728484846112bf565b611a7e84848484611d56565b611abd576040517f08c379a0000000000000000000000000000000000000000000000000000000008152600401611ab49061412e565b60405180910390fd5b50505050565b6060611ace8261111e565b6000600a60008481526020019081526020016000208054611aee90613324565b80601f0160208091040260200160405190810160405280929190818152602001828054611b1a90613324565b8015611b675780601f10611b3c57610100808354040283529160200191611b67565b820191906000526020600020905b815481529060010190602001808311611b4a57829003601f168201915b505050505090506000611b78611edd565b90506000815103611b8d578192505050611bd0565b600082511115611bc2578082604051602001611baa92919061418a565b60405160208183030381529060405292505050611bd0565b611bcb84611ef4565b925050505b919050565b60007f780e9d63000000000000000000000000000000000000000000000000000000007bffffffffffffffffffffffffffffffffffffffffffffffffffffffff1916827bffffffffffffffffffffffffffffffffffffffffffffffffffffffff19161480611c485750611c4782611f5c565b5b9050919050565b60008073ffffffffffffffffffffffffffffffffffffffff16611c7183611642565b73ffffffffffffffffffffffffffffffffffffffff1614159050919050565b611c9c8484848461203e565b50505050565b50505050565b611cb18161219c565b6000600a60008381526020019081526020016000208054611cd190613324565b905014611cf857600a60008281526020019081526020016000206000611cf79190612ac1565b5b50565b611d0583836122ea565b611d126000848484611d56565b611d51576040517f08c379a0000000000000000000000000000000000000000000000000000000008152600401611d489061412e565b60405180910390fd5b505050565b6000611d778473ffffffffffffffffffffffffffffffffffffffff16612507565b15611ed0578373ffffffffffffffffffffffffffffffffffffffff1663150b7a02611da0611169565b8786866040518563ffffffff1660e01b8152600401611dc29493929190614203565b6020604051808303816000875af1925050508015611dfe57506040513d601f19601f82011682018060405250810190611dfb9190614264565b60015b611e80573d8060008114611e2e576040519150601f19603f3d011682016040523d82523d6000602084013e611e33565b606091505b506000815103611e78576040517f08c379a0000000000000000000000000000000000000000000000000000000008152600401611e6f9061412e565b60405180910390fd5b805181602001fd5b63150b7a0260e01b7bffffffffffffffffffffffffffffffffffffffffffffffffffffffff1916817bffffffffffffffffffffffffffffffffffffffffffffffffffffffff191614915050611ed5565b600190505b949350505050565b606060405180602001604052806000815250905090565b6060611eff8261111e565b6000611f09611edd565b90506000815111611f295760405180602001604052806000815250611f54565b80611f338461252a565b604051602001611f4492919061418a565b6040516020818303038152906040525b915050919050565b60007f80ac58cd000000000000000000000000000000000000000000000000000000007bffffffffffffffffffffffffffffffffffffffffffffffffffffffff1916827bffffffffffffffffffffffffffffffffffffffffffffffffffffffff1916148061202757507f5b5e139f000000000000000000000000000000000000000000000000000000007bffffffffffffffffffffffffffffffffffffffffffffffffffffffff1916827bffffffffffffffffffffffffffffffffffffffffffffffffffffffff1916145b806120375750612036826125f8565b5b9050919050565b61204a84848484612662565b600181111561208e576040517f08c379a000000000000000000000000000000000000000000000000000000000815260040161208590614303565b60405180910390fd5b6000829050600073ffffffffffffffffffffffffffffffffffffffff168573ffffffffffffffffffffffffffffffffffffffff16036120d5576120d081612668565b612114565b8373ffffffffffffffffffffffffffffffffffffffff168573ffffffffffffffffffffffffffffffffffffffff16146121135761211285826126b1565b5b5b600073ffffffffffffffffffffffffffffffffffffffff168473ffffffffffffffffffffffffffffffffffffffff1603612156576121518161281e565b612195565b8473ffffffffffffffffffffffffffffffffffffffff168473ffffffffffffffffffffffffffffffffffffffff16146121945761219384826128ef565b5b5b5050505050565b60006121a782610aaa565b90506121b7816000846001611c90565b6121c082610aaa565b90506004600083815260200190815260200160002060006101000a81549073ffffffffffffffffffffffffffffffffffffffff02191690556001600360008373ffffffffffffffffffffffffffffffffffffffff1673ffffffffffffffffffffffffffffffffffffffff168152602001908152602001600020600082825403925050819055506002600083815260200190815260200160002060006101000a81549073ffffffffffffffffffffffffffffffffffffffff021916905581600073ffffffffffffffffffffffffffffffffffffffff168273ffffffffffffffffffffffffffffffffffffffff167fddf252ad1be2c89b69c2b068fc378daa952ba7f163c4a11628f55a4df523b3ef60405160405180910390a46122e6816000846001611ca2565b5050565b600073ffffffffffffffffffffffffffffffffffffffff168273ffffffffffffffffffffffffffffffffffffffff1603612359576040517f08c379a00000000000000000000000000000000000000000000000000000000081526004016123509061436f565b60405180910390fd5b61236281611c4f565b156123a2576040517f08c379a0000000000000000000000000000000000000000000000000000000008152600401612399906143db565b60405180910390fd5b6123b0600083836001611c90565b6123b981611c4f565b156123f9576040517f08c379a00000000000000000000000000000000000000000000000000000000081526004016123f0906143db565b60405180910390fd5b6001600360008473ffffffffffffffffffffffffffffffffffffffff1673ffffffffffffffffffffffffffffffffffffffff16815260200190815260200160002060008282540192505081905550816002600083815260200190815260200160002060006101000a81548173ffffffffffffffffffffffffffffffffffffffff021916908373ffffffffffffffffffffffffffffffffffffffff160217905550808273ffffffffffffffffffffffffffffffffffffffff16600073ffffffffffffffffffffffffffffffffffffffff167fddf252ad1be2c89b69c2b068fc378daa952ba7f163c4a11628f55a4df523b3ef60405160405180910390a4612503600083836001611ca2565b5050565b6000808273ffffffffffffffffffffffffffffffffffffffff163b119050919050565b6060600060016125398461296e565b01905060008167ffffffffffffffff81111561255857612557612f9e565b5b6040519080825280601f01601f19166020018201604052801561258a5781602001600182028036833780820191505090505b509050600082602001820190505b6001156125ed578080600190039150507f3031323334353637383961626364656600000000000000000000000000000000600a86061a8153600a85816125e1576125e0613a64565b5b04945060008503612598575b819350505050919050565b60007f01ffc9a7000000000000000000000000000000000000000000000000000000007bffffffffffffffffffffffffffffffffffffffffffffffffffffffff1916827bffffffffffffffffffffffffffffffffffffffffffffffffffffffff1916149050919050565b50505050565b6008805490506009600083815260200190815260200160002081905550600881908060018154018082558091505060019003906000526020600020016000909190919091505550565b600060016126be84610b30565b6126c891906143fb565b90506000600760008481526020019081526020016000205490508181146127ad576000600660008673ffffffffffffffffffffffffffffffffffffffff1673ffffffffffffffffffffffffffffffffffffffff168152602001908152602001600020600084815260200190815260200160002054905080600660008773ffffffffffffffffffffffffffffffffffffffff1673ffffffffffffffffffffffffffffffffffffffff168152602001908152602001600020600084815260200190815260200160002081905550816007600083815260200190815260200160002081905550505b6007600084815260200190815260200160002060009055600660008573ffffffffffffffffffffffffffffffffffffffff1673ffffffffffffffffffffffffffffffffffffffff16815260200190815260200160002060008381526020019081526020016000206000905550505050565b6000600160088054905061283291906143fb565b905060006009600084815260200190815260200160002054905060006008838154811061286257612861613712565b5b90600052602060002001549050806008838154811061288457612883613712565b5b9060005260206000200181905550816009600083815260200190815260200160002081905550600960008581526020019081526020016000206000905560088054806128d3576128d261442f565b5b6001900381819060005260206000200160009055905550505050565b60006128fa83610b30565b905081600660008573ffffffffffffffffffffffffffffffffffffffff1673ffffffffffffffffffffffffffffffffffffffff168152602001908152602001600020600083815260200190815260200160002081905550806007600084815260200190815260200160002081905550505050565b600080600090507a184f03e93ff9f4daa797ed6e38ed64bf6a1f01000000000000000083106129cc577a184f03e93ff9f4daa797ed6e38ed64bf6a1f01000000000000000083816129c2576129c1613a64565b5b0492506040810190505b6d04ee2d6d415b85acef81000000008310612a09576d04ee2d6d415b85acef810000000083816129ff576129fe613a64565b5b0492506020810190505b662386f26fc100008310612a3857662386f26fc100008381612a2e57612a2d613a64565b5b0492506010810190505b6305f5e1008310612a61576305f5e1008381612a5757612a56613a64565b5b0492506008810190505b6127108310612a86576127108381612a7c57612a7b613a64565b5b0492506004810190505b60648310612aa95760648381612a9f57612a9e613a64565b5b0492506002810190505b600a8310612ab8576001810190505b80915050919050565b508054612acd90613324565b6000825580601f10612adf5750612afe565b601f016020900490600052602060002090810190612afd9190612b01565b5b50565b5b80821115612b1a576000816000905550600101612b02565b5090565b6000604051905090565b600080fd5b600080fd5b60007fffffffff0000000000000000000000000000000000000000000000000000000082169050919050565b612b6781612b32565b8114612b7257600080fd5b50565b600081359050612b8481612b5e565b92915050565b600060208284031215612ba057612b9f612b28565b5b6000612bae84828501612b75565b91505092915050565b60008115159050919050565b612bcc81612bb7565b82525050565b6000602082019050612be76000830184612bc3565b92915050565b600081519050919050565b600082825260208201905092915050565b60005b83811015612c27578082015181840152602081019050612c0c565b60008484015250505050565b6000601f19601f8301169050919050565b6000612c4f82612bed565b612c598185612bf8565b9350612c69818560208601612c09565b612c7281612c33565b840191505092915050565b60006020820190508181036000830152612c978184612c44565b905092915050565b6000819050919050565b612cb281612c9f565b8114612cbd57600080fd5b50565b600081359050612ccf81612ca9565b92915050565b600060208284031215612ceb57612cea612b28565b5b6000612cf984828501612cc0565b91505092915050565b600073ffffffffffffffffffffffffffffffffffffffff82169050919050565b6000612d2d82612d02565b9050919050565b612d3d81612d22565b82525050565b6000602082019050612d586000830184612d34565b92915050565b612d6781612d22565b8114612d7257600080fd5b50565b600081359050612d8481612d5e565b92915050565b60008060408385031215612da157612da0612b28565b5b6000612daf85828601612d75565b9250506020612dc085828601612cc0565b9150509250929050565b612dd381612c9f565b82525050565b6000602082019050612dee6000830184612dca565b92915050565b600081519050919050565b600082825260208201905092915050565b6000819050602082019050919050565b612e2981612c9f565b82525050565b6000612e3b8383612e20565b60208301905092915050565b6000602082019050919050565b6000612e5f82612df4565b612e698185612dff565b9350612e7483612e10565b8060005b83811015612ea5578151612e8c8882612e2f565b9750612e9783612e47565b925050600181019050612e78565b5085935050505092915050565b60006020820190508181036000830152612ecc8184612e54565b905092915050565b600080600060608486031215612eed57612eec612b28565b5b6000612efb86828701612d75565b9350506020612f0c86828701612d75565b9250506040612f1d86828701612cc0565b9150509250925092565b60008060408385031215612f3e57612f3d612b28565b5b6000612f4c85828601612cc0565b9250506020612f5d85828601612cc0565b9150509250929050565b600060208284031215612f7d57612f7c612b28565b5b6000612f8b84828501612d75565b91505092915050565b600080fd5b600080fd5b7f4e487b7100000000000000000000000000000000000000000000000000000000600052604160045260246000fd5b612fd682612c33565b810181811067ffffffffffffffff82111715612ff557612ff4612f9e565b5b80604052505050565b6000613008612b1e565b90506130148282612fcd565b919050565b600067ffffffffffffffff82111561303457613033612f9e565b5b61303d82612c33565b9050602081019050919050565b82818337600083830152505050565b600061306c61306784613019565b612ffe565b90508281526020810184848401111561308857613087612f99565b5b61309384828561304a565b509392505050565b600082601f8301126130b0576130af612f94565b5b81356130c0848260208601613059565b91505092915050565b600080604083850312156130e0576130df612b28565b5b60006130ee85828601612cc0565b925050602083013567ffffffffffffffff81111561310f5761310e612b2d565b5b61311b8582860161309b565b9150509250929050565b61312e81612bb7565b811461313957600080fd5b50565b60008135905061314b81613125565b92915050565b6000806040838503121561316857613167612b28565b5b600061317685828601612d75565b92505060206131878582860161313c565b9150509250929050565b600067ffffffffffffffff8211156131ac576131ab612f9e565b5b6131b582612c33565b9050602081019050919050565b60006131d56131d084613191565b612ffe565b9050828152602081018484840111156131f1576131f0612f99565b5b6131fc84828561304a565b509392505050565b600082601f83011261321957613218612f94565b5b81356132298482602086016131c2565b91505092915050565b6000806000806080858703121561324c5761324b612b28565b5b600061325a87828801612d75565b945050602061326b87828801612d75565b935050604061327c87828801612cc0565b925050606085013567ffffffffffffffff81111561329d5761329c612b2d565b5b6132a987828801613204565b91505092959194509250565b600080604083850312156132cc576132cb612b28565b5b60006132da85828601612d75565b92505060206132eb85828601612d75565b9150509250929050565b7f4e487b7100000000000000000000000000000000000000000000000000000000600052602260045260246000fd5b6000600282049050600182168061333c57607f821691505b60208210810361334f5761334e6132f5565b5b50919050565b7f4552433732313a20617070726f76616c20746f2063757272656e74206f776e6560008201527f7200000000000000000000000000000000000000000000000000000000000000602082015250565b60006133b1602183612bf8565b91506133bc82613355565b604082019050919050565b600060208201905081810360008301526133e0816133a4565b9050919050565b7f4552433732313a20617070726f76652063616c6c6572206973206e6f7420746f60008201527f6b656e206f776e6572206f7220617070726f76656420666f7220616c6c000000602082015250565b6000613443603d83612bf8565b915061344e826133e7565b604082019050919050565b6000602082019050818103600083015261347281613436565b9050919050565b7f4552433732313a2063616c6c6572206973206e6f7420746f6b656e206f776e6560008201527f72206f7220617070726f76656400000000000000000000000000000000000000602082015250565b60006134d5602d83612bf8565b91506134e082613479565b604082019050919050565b60006020820190508181036000830152613504816134c8565b9050919050565b7f455243373231456e756d657261626c653a206f776e657220696e646578206f7560008201527f74206f6620626f756e6473000000000000000000000000000000000000000000602082015250565b6000613567602b83612bf8565b91506135728261350b565b604082019050919050565b600060208201905081810360008301526135968161355a565b9050919050565b7f4e487b7100000000000000000000000000000000000000000000000000000000600052601160045260246000fd5b60006135d782612c9f565b91507fffffffffffffffffffffffffffffffffffffffffffffffffffffffffffffffff82036136095761360861359d565b5b600182019050919050565b7f43616c6c6572206973206e6f74206f776e6572206e6f7220617070726f766564600082015250565b600061364a602083612bf8565b915061365582613614565b602082019050919050565b600060208201905081810360008301526136798161363d565b9050919050565b7f455243373231456e756d657261626c653a20676c6f62616c20696e646578206f60008201527f7574206f6620626f756e64730000000000000000000000000000000000000000602082015250565b60006136dc602c83612bf8565b91506136e782613680565b604082019050919050565b6000602082019050818103600083015261370b816136cf565b9050919050565b7f4e487b7100000000000000000000000000000000000000000000000000000000600052603260045260246000fd5b7f4c6f636174696f6e20616c726561647920657869737473000000000000000000600082015250565b6000613777601783612bf8565b915061378282613741565b602082019050919050565b600060208201905081810360008301526137a68161376a565b9050919050565b60006040820190506137c26000830185612dca565b6137cf6020830184612dca565b9392505050565b7f4552433732313a20696e76616c696420746f6b656e2049440000000000000000600082015250565b600061380c601883612bf8565b9150613817826137d6565b602082019050919050565b6000602082019050818103600083015261383b816137ff565b9050919050565b7f4552433732313a2061646472657373207a65726f206973206e6f74206120766160008201527f6c6964206f776e65720000000000000000000000000000000000000000000000602082015250565b600061389e602983612bf8565b91506138a982613842565b604082019050919050565b600060208201905081810360008301526138cd81613891565b9050919050565b7f4c6f636174696f6e20646f6573206e6f74206578697374000000000000000000600082015250565b600061390a601783612bf8565b9150613915826138d4565b602082019050919050565b60006020820190508181036000830152613939816138fd565b9050919050565b7f4461696c79206d696e74206c696d6974207265616368656420666f722074686960008201527f73206c6f636174696f6e00000000000000000000000000000000000000000000602082015250565b600061399c602a83612bf8565b91506139a782613940565b604082019050919050565b600060208201905081810360008301526139cb8161398f565b9050919050565b7f557365722068617320616c7265616479206d696e74656420666f72207468697360008201527f206c6f636174696f6e20746f6461790000000000000000000000000000000000602082015250565b6000613a2e602f83612bf8565b9150613a39826139d2565b604082019050919050565b60006020820190508181036000830152613a5d81613a21565b9050919050565b7f4e487b7100000000000000000000000000000000000000000000000000000000600052601260045260246000fd5b6000613a9e82612c9f565b9150613aa983612c9f565b925082613ab957613ab8613a64565b5b828204905092915050565b600060a082019050613ad96000830188612dca565b613ae66020830187612dca565b613af36040830186612d34565b613b006060830185612dca565b8181036080830152613b128184612c44565b90509695505050505050565b7f4f776e61626c653a206e6577206f776e657220697320746865207a65726f206160008201527f6464726573730000000000000000000000000000000000000000000000000000602082015250565b6000613b7a602683612bf8565b9150613b8582613b1e565b604082019050919050565b60006020820190508181036000830152613ba981613b6d565b9050919050565b7f4552433732313a207472616e736665722066726f6d20696e636f72726563742060008201527f6f776e6572000000000000000000000000000000000000000000000000000000602082015250565b6000613c0c602583612bf8565b9150613c1782613bb0565b604082019050919050565b60006020820190508181036000830152613c3b81613bff565b9050919050565b7f4552433732313a207472616e7366657220746f20746865207a65726f2061646460008201527f7265737300000000000000000000000000000000000000000000000000000000602082015250565b6000613c9e602483612bf8565b9150613ca982613c42565b604082019050919050565b60006020820190508181036000830152613ccd81613c91565b9050919050565b7f4f776e61626c653a2063616c6c6572206973206e6f7420746865206f776e6572600082015250565b6000613d0a602083612bf8565b9150613d1582613cd4565b602082019050919050565b60006020820190508181036000830152613d3981613cfd565b9050919050565b7f45524337323155524953746f726167653a2055524920736574206f66206e6f6e60008201527f6578697374656e7420746f6b656e000000000000000000000000000000000000602082015250565b6000613d9c602e83612bf8565b9150613da782613d40565b604082019050919050565b60006020820190508181036000830152613dcb81613d8f565b9050919050565b60008190508160005260206000209050919050565b60006020601f8301049050919050565b600082821b905092915050565b600060088302613e347fffffffffffffffffffffffffffffffffffffffffffffffffffffffffffffffff82613df7565b613e3e8683613df7565b95508019841693508086168417925050509392505050565b6000819050919050565b6000613e7b613e76613e7184612c9f565b613e56565b612c9f565b9050919050565b6000819050919050565b613e9583613e60565b613ea9613ea182613e82565b848454613e04565b825550505050565b600090565b613ebe613eb1565b613ec9818484613e8c565b505050565b5b81811015613eed57613ee2600082613eb6565b600181019050613ecf565b5050565b601f821115613f3257613f0381613dd2565b613f0c84613de7565b81016020851015613f1b578190505b613f2f613f2785613de7565b830182613ece565b50505b505050565b600082821c905092915050565b6000613f5560001984600802613f37565b1980831691505092915050565b6000613f6e8383613f44565b9150826002028217905092915050565b613f8782612bed565b67ffffffffffffffff811115613fa057613f9f612f9e565b5b613faa8254613324565b613fb5828285613ef1565b600060209050601f831160018114613fe85760008415613fd6578287015190505b613fe08582613f62565b865550614048565b601f198416613ff686613dd2565b60005b8281101561401e57848901518255600182019150602085019450602081019050613ff9565b8683101561403b5784890151614037601f891682613f44565b8355505b6001600288020188555050505b505050505050565b7f4552433732313a20617070726f766520746f2063616c6c657200000000000000600082015250565b6000614086601983612bf8565b915061409182614050565b602082019050919050565b600060208201905081810360008301526140b581614079565b9050919050565b7f4552433732313a207472616e7366657220746f206e6f6e20455243373231526560008201527f63656976657220696d706c656d656e7465720000000000000000000000000000602082015250565b6000614118603283612bf8565b9150614123826140bc565b604082019050919050565b600060208201905081810360008301526141478161410b565b9050919050565b600081905092915050565b600061416482612bed565b61416e818561414e565b935061417e818560208601612c09565b80840191505092915050565b60006141968285614159565b91506141a28284614159565b91508190509392505050565b600081519050919050565b600082825260208201905092915050565b60006141d5826141ae565b6141df81856141b9565b93506141ef818560208601612c09565b6141f881612c33565b840191505092915050565b60006080820190506142186000830187612d34565b6142256020830186612d34565b6142326040830185612dca565b818103606083015261424481846141ca565b905095945050505050565b60008151905061425e81612b5e565b92915050565b60006020828403121561427a57614279612b28565b5b60006142888482850161424f565b91505092915050565b7f455243373231456e756d657261626c653a20636f6e736563757469766520747260008201527f616e7366657273206e6f7420737570706f727465640000000000000000000000602082015250565b60006142ed603583612bf8565b91506142f882614291565b604082019050919050565b6000602082019050818103600083015261431c816142e0565b9050919050565b7f4552433732313a206d696e7420746f20746865207a65726f2061646472657373600082015250565b6000614359602083612bf8565b915061436482614323565b602082019050919050565b600060208201905081810360008301526143888161434c565b9050919050565b7f4552433732313a20746f6b656e20616c7265616479206d696e74656400000000600082015250565b60006143c5601c83612bf8565b91506143d08261438f565b602082019050919050565b600060208201905081810360008301526143f4816143b8565b9050919050565b600061440682612c9f565b915061441183612c9f565b92508282039050818111156144295761442861359d565b5b92915050565b7f4e487b7100000000000000000000000000000000000000000000000000000000600052603160045260246000fdfea26469706673582212203df2f9f39c3c0431b21ad6e50909ec1665e45272f30e95e443b7fd1cd2658f0764736f6c63430008180033",
  "linkReferences": {},
  "deployedLinkReferences": {}
}