{
  "_format": "hh-sol-artifact-1",
  "contractName": "TouristNFT",
  "sourceName": "contracts/TouristNFT.sol",
  "abi": [
    {
      "inputs": [],
      "stateMutability": "nonpayable",
      "type": "constructor"
    },
    {
      "anonymous": false,
      "inputs": [
        {
          "indexed": true,
          "internalType": "address",
          "name": "owner",
          "type": "address"
        },
        {
          "indexed": true,
          "internalType": "address",
          "name": "approved",
          "type": "address"
        },
        {
          "indexed": true,
          "internalType": "uint256",
          "name": "tokenId",
          "type": "uint256"
        }
      ],
      "name": "Approval",
      "type": "event"
    },
    {
      "anonymous": false,
      "inputs": [
        {
          "indexed": true,
          "internalType": "address",
          "name": "owner",
          "type": "address"
        },
        {
          "indexed": true,
          "internalType": "address",
          "name": "operator",
          "type": "address"
        },
        {
          "indexed": false,
          "internalType": "bool",
          "name": "approved",
          "type": "bool"
        }
      ],
      "name": "ApprovalForAll",
      "type": "event"
    },
    {
      "anonymous": false,
      "inputs": [
        {
          "indexed": false,
          "internalType": "uint256",
          "name": "_fromTokenId",
          "type": "uint256"
        },
        {
          "indexed": false,
          "internalType": "uint256",
          "name": "_toTokenId",
          "type": "uint256"
        }
      ],
      "name": "BatchMetadataUpdate",
      "type": "event"
    },
    {
      "anonymous": false,
      "inputs": [
        {
          "indexed": false,
          "internalType": "uint256",
          "name": "locationId",
          "type": "uint256"
        },
        {
          "indexed": false,
          "internalType": "uint256",
          "name": "dailyMintLimit",
          "type": "uint256"
        }
      ],
      "name": "LocationAdded",
      "type": "event"
    },
    {
      "anonymous": false,
      "inputs": [
        {
          "indexed": false,
          "internalType": "uint256",
          "name": "_tokenId",
          "type": "uint256"
        }
      ],
      "name": "MetadataUpdate",
      "type": "event"
    },
    {
      "anonymous": false,
      "inputs": [
        {
          "indexed": false,
          "internalType": "uint256",
          "name": "tokenId",
          "type": "uint256"
        },
        {
          "indexed": false,
          "internalType": "uint256",
          "name": "locationId",
          "type": "uint256"
        },
        {
          "indexed": false,
          "internalType": "address",
          "name": "recipient",
          "type": "address"
        },
        {
          "indexed": false,
          "internalType": "uint256",
          "name": "timestamp",
          "type": "uint256"
        },
        {
          "indexed": false,
          "internalType": "string",
          "name": "tokenURI",
          "type": "string"
        }
      ],
      "name": "NFTMinted",
      "type": "event"
    },
    {
      "anonymous": false,
      "inputs": [
        {
          "indexed": true,
          "internalType": "address",
          "name": "previousOwner",
          "type": "address"
        },
        {
          "indexed": true,
          "internalType": "address",
          "name": "newOwner",
          "type": "address"
        }
      ],
      "name": "OwnershipTransferred",
      "type": "event"
    },
    {
      "anonymous": false,
      "inputs": [
        {
          "indexed": true,
          "internalType": "address",
          "name": "from",
          "type": "address"
        },
        {
          "indexed": true,
          "internalType": "address",
          "name": "to",
          "type": "address"
        },
        {
          "indexed": true,
          "internalType": "uint256",
          "name": "tokenId",
          "type": "uint256"
        }
      ],
      "name": "Transfer",
      "type": "event"
    },
    {
      "inputs": [
        {
          "internalType": "uint256",
          "name": "locationId",
          "type": "uint256"
        },
        {
          "internalType": "uint256",
          "name": "dailyMintLimit",
          "type": "uint256"
        }
      ],
      "name": "addLocation",
      "outputs": [],
      "stateMutability": "nonpayable",
      "type": "function"
    },
    {
      "inputs": [
        {
          "internalType": "address",
          "name": "to",
          "type": "address"
        },
        {
          "internalType": "uint256",
          "name": "tokenId",
          "type": "uint256"
        }
      ],
      "name": "approve",
      "outputs": [],
      "stateMutability": "nonpayable",
      "type": "function"
    },
    {
      "inputs": [
        {
          "internalType": "address",
          "name": "owner",
          "type": "address"
        }
      ],
      "name": "balanceOf",
      "outputs": [
        {
          "internalType": "uint256",
          "name": "",
          "type": "uint256"
        }
      ],
      "stateMutability": "view",
      "type": "function"
    },
    {
      "inputs": [
        {
          "internalType": "uint256",
          "name": "tokenId",
          "type": "uint256"
        }
      ],
      "name": "burn",
      "outputs": [],
      "stateMutability": "nonpayable",
      "type": "function"
    },
    {
      "inputs": [],
      "name": "getAllLocationIds",
      "outputs": [
        {
          "internalType": "uint256[]",
          "name": "",
          "type": "uint256[]"
        }
      ],
      "stateMutability": "view",
      "type": "function"
    },
    {
      "inputs": [
        {
          "internalType": "uint256",
          "name": "tokenId",
          "type": "uint256"
        }
      ],
      "name": "getApproved",
      "outputs": [
        {
          "internalType": "address",
          "name": "",
          "type": "address"
        }
      ],
      "stateMutability": "view",
      "type": "function"
    },
    {
      "inputs": [
        {
          "internalType": "uint256",
          "name": "locationId",
          "type": "uint256"
        }
      ],
      "name": "getDailyMintCount",
      "outputs": [
        {
          "internalType": "uint256",
          "name": "",
          "type": "uint256"
        }
      ],
      "stateMutability": "view",
      "type": "function"
    },
    {
      "inputs": [],
      "name": "initializeLocations",
      "outputs": [],
      "stateMutability": "nonpayable",
      "type": "function"
    },
    {
      "inputs": [
        {
          "internalType": "address",
          "name": "owner",
          "type": "address"
        },
        {
          "internalType": "address",
          "name": "operator",
          "type": "address"
        }
      ],
      "name": "isApprovedForAll",
      "outputs": [
        {
          "internalType": "bool",
          "name": "",
          "type": "bool"
        }
      ],
      "stateMutability": "view",
      "type": "function"
    },
    {
      "inputs": [
        {
          "internalType": "uint256",
          "name": "",
          "type": "uint256"
        }
      ],
      "name": "locations",
      "outputs": [
        {
          "internalType": "uint256",
          "name": "dailyMintLimit",
          "type": "uint256"
        }
      ],
      "stateMutability": "view",
      "type": "function"
    },
    {
      "inputs": [
        {
          "internalType": "uint256",
          "name": "locationId",
          "type": "uint256"
        },
        {
          "internalType": "string",
          "name": "_tokenURI",
          "type": "string"
        }
      ],
      "name": "mint",
      "outputs": [],
      "stateMutability": "nonpayable",
      "type": "function"
    },
    {
      "inputs": [],
      "name": "name",
      "outputs": [
        {
          "internalType": "string",
          "name": "",
          "type": "string"
        }
      ],
      "stateMutability": "view",
      "type": "function"
    },
    {
      "inputs": [],
      "name": "owner",
      "outputs": [
        {
          "internalType": "address",
          "name": "",
          "type": "address"
        }
      ],
      "stateMutability": "view",
      "type": "function"
    },
    {
      "inputs": [
        {
          "internalType": "uint256",
          "name": "tokenId",
          "type": "uint256"
        }
      ],
      "name": "ownerOf",
      "outputs": [
        {
          "internalType": "address",
          "name": "",
          "type": "address"
        }
      ],
      "stateMutability": "view",
      "type": "function"
    },
    {
      "inputs": [],
      "name": "renounceOwnership",
      "outputs": [],
      "stateMutability": "nonpayable",
      "type": "function"
    },
    {
      "inputs": [
        {
          "internalType": "address",
          "name": "from",
          "type": "address"
        },
        {
          "internalType": "address",
          "name": "to",
          "type": "address"
        },
        {
          "internalType": "uint256",
          "name": "tokenId",
          "type": "uint256"
        }
      ],
      "name": "safeTransferFrom",
      "outputs": [],
      "stateMutability": "nonpayable",
      "type": "function"
    },
    {
      "inputs": [
        {
          "internalType": "address",
          "name": "from",
          "type": "address"
        },
        {
          "internalType": "address",
          "name": "to",
          "type": "address"
        },
        {
          "internalType": "uint256",
          "name": "tokenId",
          "type": "uint256"
        },
        {
          "internalType": "bytes",
          "name": "data",
          "type": "bytes"
        }
      ],
      "name": "safeTransferFrom",
      "outputs": [],
      "stateMutability": "nonpayable",
      "type": "function"
    },
    {
      "inputs": [
        {
          "internalType": "address",
          "name": "operator",
          "type": "address"
        },
        {
          "internalType": "bool",
          "name": "approved",
          "type": "bool"
        }
      ],
      "name": "setApprovalForAll",
      "outputs": [],
      "stateMutability": "nonpayable",
      "type": "function"
    },
    {
      "inputs": [
        {
          "internalType": "bytes4",
          "name": "interfaceId",
          "type": "bytes4"
        }
      ],
      "name": "supportsInterface",
      "outputs": [
        {
          "internalType": "bool",
          "name": "",
          "type": "bool"
        }
      ],
      "stateMutability": "view",
      "type": "function"
    },
    {
      "inputs": [],
      "name": "symbol",
      "outputs": [
        {
          "internalType": "string",
          "name": "",
          "type": "string"
        }
      ],
      "stateMutability": "view",
      "type": "function"
    },
    {
      "inputs": [
        {
          "internalType": "uint256",
          "name": "index",
          "type": "uint256"
        }
      ],
      "name": "tokenByIndex",
      "outputs": [
        {
          "internalType": "uint256",
          "name": "",
          "type": "uint256"
        }
      ],
      "stateMutability": "view",
      "type": "function"
    },
    {
      "inputs": [
        {
          "internalType": "address",
          "name": "owner",
          "type": "address"
        },
        {
          "internalType": "uint256",
          "name": "index",
          "type": "uint256"
        }
      ],
      "name": "tokenOfOwnerByIndex",
      "outputs": [
        {
          "internalType": "uint256",
          "name": "",
          "type": "uint256"
        }
      ],
      "stateMutability": "view",
      "type": "function"
    },
    {
      "inputs": [
        {
          "internalType": "uint256",
          "name": "tokenId",
          "type": "uint256"
        }
      ],
      "name": "tokenURI",
      "outputs": [
        {
          "internalType": "string",
          "name": "",
          "type": "string"
        }
      ],
      "stateMutability": "view",
      "type": "function"
    },
    {
      "inputs": [],
      "name": "totalSupply",
      "outputs": [
        {
          "internalType": "uint256",
          "name": "",
          "type": "uint256"
        }
      ],
      "stateMutability": "view",
      "type": "function"
    },
    {
      "inputs": [
        {
          "internalType": "address",
          "name": "from",
          "type": "address"
        },
        {
          "internalType": "address",
          "name": "to",
          "type": "address"
        },
        {
          "internalType": "uint256",
          "name": "tokenId",
          "type": "uint256"
        }
      ],
      "name": "transferFrom",
      "outputs": [],
      "stateMutability": "nonpayable",
      "type": "function"
    },
    {
      "inputs": [
        {
          "internalType": "address",
          "name": "newOwner",
          "type": "address"
        }
      ],
      "name": "transferOwnership",
      "outputs": [],
      "stateMutability": "nonpayable",
      "type": "function"
    }
  ],
  "bytecode": "0x60806040523480156200001157600080fd5b506040518060400160405280600a81526020017f546f75726973744e4654000000000000000000000000000000000000000000008152506040518060400160405280600481526020017f544e46540000000000000000000000000000000000000000000000000000000081525081600090816200008f919062000412565b508060019081620000a1919062000412565b505050620000c4620000b8620000ca60201b60201c565b620000d260201b60201c565b620004f9565b600033905090565b6000600b60009054906101000a900473ffffffffffffffffffffffffffffffffffffffff16905081600b60006101000a81548173ffffffffffffffffffffffffffffffffffffffff021916908373ffffffffffffffffffffffffffffffffffffffff1602179055508173ffffffffffffffffffffffffffffffffffffffff168173ffffffffffffffffffffffffffffffffffffffff167f8be0079c531659141344cd1fd0a4f28419497f9722a3daafe3b4186f6b6457e060405160405180910390a35050565b600081519050919050565b7f4e487b7100000000000000000000000000000000000000000000000000000000600052604160045260246000fd5b7f4e487b7100000000000000000000000000000000000000000000000000000000600052602260045260246000fd5b600060028204905060018216806200021a57607f821691505b60208210810362000230576200022f620001d2565b5b50919050565b60008190508160005260206000209050919050565b60006020601f8301049050919050565b600082821b905092915050565b6000600883026200029a7fffffffffffffffffffffffffffffffffffffffffffffffffffffffffffffffff826200025b565b620002a686836200025b565b95508019841693508086168417925050509392505050565b6000819050919050565b6000819050919050565b6000620002f3620002ed620002e784620002be565b620002c8565b620002be565b9050919050565b6000819050919050565b6200030f83620002d2565b620003276200031e82620002fa565b84845462000268565b825550505050565b600090565b6200033e6200032f565b6200034b81848462000304565b505050565b5b8181101562000373576200036760008262000334565b60018101905062000351565b5050565b601f821115620003c2576200038c8162000236565b62000397846200024b565b81016020851015620003a7578190505b620003bf620003b6856200024b565b83018262000350565b50505b505050565b600082821c905092915050565b6000620003e760001984600802620003c7565b1980831691505092915050565b6000620004028383620003d4565b9150826002028217905092915050565b6200041d8262000198565b67ffffffffffffffff811115620004395762000438620001a3565b5b62000445825462000201565b6200045282828562000377565b600060209050601f8311600181146200048a576000841562000475578287015190505b620004818582620003f4565b865550620004f1565b601f1984166200049a8662000236565b60005b82811015620004c4578489015182556001820191506020850194506020810190506200049d565b86831015620004e45784890151620004e0601f891682620003d4565b8355505b6001600288020188555050505b505050505050565b61434580620005096000396000f3fe608060405234801561001057600080fd5b506004361061018e5760003560e01c80636352211e116100de578063a22cb46511610097578063c87b56dd11610071578063c87b56dd1461046d578063d6503af81461049d578063e985e9c5146104cd578063f2fde38b146104fd5761018e565b8063a22cb46514610405578063b88d4fde14610421578063b9e0db351461043d5761018e565b80636352211e1461034357806370a0823114610373578063715018a6146103a357806377097fc8146103ad5780638da5cb5b146103c957806395d89b41146103e75761018e565b806323b872dd1161014b57806342842e0e1161012557806342842e0e146102bf57806342966c68146102db5780634f6ccce7146102f757806350e2304c146103275761018e565b806323b872dd146102695780632f745c591461028557806331ba2dbc146102b55761018e565b806301ffc9a71461019357806306fdde03146101c3578063081812fc146101e1578063095ea7b31461021157806318160ddd1461022d5780631fc27d531461024b575b600080fd5b6101ad60048036038101906101a89190612acd565b610519565b6040516101ba9190612b15565b60405180910390f35b6101cb61052b565b6040516101d89190612bc0565b60405180910390f35b6101fb60048036038101906101f69190612c18565b6105bd565b6040516102089190612c86565b60405180910390f35b61022b60048036038101906102269190612ccd565b610603565b005b61023561071a565b6040516102429190612d1c565b60405180910390f35b610253610727565b6040516102609190612df5565b60405180910390f35b610283600480360381019061027e9190612e17565b61077f565b005b61029f600480360381019061029a9190612ccd565b6107df565b6040516102ac9190612d1c565b60405180910390f35b6102bd610884565b005b6102d960048036038101906102d49190612e17565b6108db565b005b6102f560048036038101906102f09190612c18565b6108fb565b005b610311600480360381019061030c9190612c18565b610957565b60405161031e9190612d1c565b60405180910390f35b610341600480360381019061033c9190612e6a565b6109c8565b005b61035d60048036038101906103589190612c18565b610aaa565b60405161036a9190612c86565b60405180910390f35b61038d60048036038101906103889190612eaa565b610b30565b60405161039a9190612d1c565b60405180910390f35b6103ab610be7565b005b6103c760048036038101906103c2919061300c565b610bfb565b005b6103d1610db5565b6040516103de9190612c86565b60405180910390f35b6103ef610ddf565b6040516103fc9190612bc0565b60405180910390f35b61041f600480360381019061041a9190613094565b610e71565b005b61043b60048036038101906104369190613175565b610e87565b005b61045760048036038101906104529190612c18565b610ee9565b6040516104649190612d1c565b60405180910390f35b61048760048036038101906104829190612c18565b610f07565b6040516104949190612bc0565b60405180910390f35b6104b760048036038101906104b29190612c18565b610f19565b6040516104c49190612d1c565b60405180910390f35b6104e760048036038101906104e291906131f8565b610f5d565b6040516104f49190612b15565b60405180910390f35b61051760048036038101906105129190612eaa565b610ff1565b005b600061052482611074565b9050919050565b60606000805461053a90613267565b80601f016020809104026020016040519081016040528092919081815260200182805461056690613267565b80156105b35780601f10610588576101008083540402835291602001916105b3565b820191906000526020600020905b81548152906001019060200180831161059657829003601f168201915b5050505050905090565b60006105c8826110d5565b6004600083815260200190815260200160002060009054906101000a900473ffffffffffffffffffffffffffffffffffffffff169050919050565b600061060e82610aaa565b90508073ffffffffffffffffffffffffffffffffffffffff168373ffffffffffffffffffffffffffffffffffffffff160361067e576040517f08c379a00000000000000000000000000000000000000000000000000000000081526004016106759061330a565b60405180910390fd5b8073ffffffffffffffffffffffffffffffffffffffff1661069d611120565b73ffffffffffffffffffffffffffffffffffffffff1614806106cc57506106cb816106c6611120565b610f5d565b5b61070b576040517f08c379a00000000000000000000000000000000000000000000000000000000081526004016107029061339c565b60405180910390fd5b6107158383611128565b505050565b6000600880549050905090565b6060600f80548060200260200160405190810160405280929190818152602001828054801561077557602002820191906000526020600020905b815481526020019060010190808311610761575b5050505050905090565b61079061078a611120565b826111e1565b6107cf576040517f08c379a00000000000000000000000000000000000000000000000000000000081526004016107c69061342e565b60405180910390fd5b6107da838383611276565b505050565b60006107ea83610b30565b821061082b576040517f08c379a0000000000000000000000000000000000000000000000000000000008152600401610822906134c0565b60405180910390fd5b600660008473ffffffffffffffffffffffffffffffffffffffff1673ffffffffffffffffffffffffffffffffffffffff168152602001908152602001600020600083815260200190815260200160002054905092915050565b61088c61156f565b6000600190505b600a81116108d8576000600d600083815260200190815260200160002060000154036108c5576108c481600a6109c8565b5b80806108d09061350f565b915050610893565b50565b6108f683838360405180602001604052806000815250610e87565b505050565b61090c610906611120565b826111e1565b61094b576040517f08c379a0000000000000000000000000000000000000000000000000000000008152600401610942906135a3565b60405180910390fd5b610954816115ed565b50565b600061096161071a565b82106109a2576040517f08c379a000000000000000000000000000000000000000000000000000000000815260040161099990613635565b60405180910390fd5b600882815481106109b6576109b5613655565b5b90600052602060002001549050919050565b6109d061156f565b6000600d60008481526020019081526020016000206000015414610a29576040517f08c379a0000000000000000000000000000000000000000000000000000000008152600401610a20906136d0565b60405180910390fd5b80600d600084815260200190815260200160002060000181905550600f8290806001815401808255809150506001900390600052602060002001600090919091909150557f4fe296729239935ed5fdee6ae0b96ee916574dca066718fa9fbaba375cd3fd078282604051610a9e9291906136f0565b60405180910390a15050565b600080610ab6836115f9565b9050600073ffffffffffffffffffffffffffffffffffffffff168173ffffffffffffffffffffffffffffffffffffffff1603610b27576040517f08c379a0000000000000000000000000000000000000000000000000000000008152600401610b1e90613765565b60405180910390fd5b80915050919050565b60008073ffffffffffffffffffffffffffffffffffffffff168273ffffffffffffffffffffffffffffffffffffffff1603610ba0576040517f08c379a0000000000000000000000000000000000000000000000000000000008152600401610b97906137f7565b60405180910390fd5b600360008373ffffffffffffffffffffffffffffffffffffffff1673ffffffffffffffffffffffffffffffffffffffff168152602001908152602001600020549050919050565b610bef61156f565b610bf96000611636565b565b6000600d60008481526020019081526020016000206000015411610c54576040517f08c379a0000000000000000000000000000000000000000000000000000000008152600401610c4b90613863565b60405180910390fd5b610c5d826116fc565b610c9c576040517f08c379a0000000000000000000000000000000000000000000000000000000008152600401610c93906138f5565b60405180910390fd5b6000610ca8600c611758565b9050610cb4600c611766565b610cbe338261177c565b610cc8818361179a565b60006201518042610cd99190613944565b9050600d600085815260200190815260200160002060010160008281526020019081526020016000206000815480929190610d139061350f565b919050555080600d600086815260200190815260200160002060020160003373ffffffffffffffffffffffffffffffffffffffff1673ffffffffffffffffffffffffffffffffffffffff168152602001908152602001600020819055507f1993d960236f0e88f2a6f20267f77cf257e71924c31190d72b1446e322b893168285334287604051610da7959493929190613975565b60405180910390a150505050565b6000600b60009054906101000a900473ffffffffffffffffffffffffffffffffffffffff16905090565b606060018054610dee90613267565b80601f0160208091040260200160405190810160405280929190818152602001828054610e1a90613267565b8015610e675780601f10610e3c57610100808354040283529160200191610e67565b820191906000526020600020905b815481529060010190602001808311610e4a57829003601f168201915b5050505050905090565b610e83610e7c611120565b838361183e565b5050565b610e98610e92611120565b836111e1565b610ed7576040517f08c379a0000000000000000000000000000000000000000000000000000000008152600401610ece9061342e565b60405180910390fd5b610ee3848484846119aa565b50505050565b600d6020528060005260406000206000915090508060000154905081565b6060610f1282611a06565b9050919050565b6000806201518042610f2b9190613944565b9050600d6000848152602001908152602001600020600101600082815260200190815260200160002054915050919050565b6000600560008473ffffffffffffffffffffffffffffffffffffffff1673ffffffffffffffffffffffffffffffffffffffff16815260200190815260200160002060008373ffffffffffffffffffffffffffffffffffffffff1673ffffffffffffffffffffffffffffffffffffffff16815260200190815260200160002060009054906101000a900460ff16905092915050565b610ff961156f565b600073ffffffffffffffffffffffffffffffffffffffff168173ffffffffffffffffffffffffffffffffffffffff1603611068576040517f08c379a000000000000000000000000000000000000000000000000000000000815260040161105f90613a41565b60405180910390fd5b61107181611636565b50565b6000634906490660e01b7bffffffffffffffffffffffffffffffffffffffffffffffffffffffff1916827bffffffffffffffffffffffffffffffffffffffffffffffffffffffff191614806110ce57506110cd82611b18565b5b9050919050565b6110de81611b92565b61111d576040517f08c379a000000000000000000000000000000000000000000000000000000000815260040161111490613765565b60405180910390fd5b50565b600033905090565b816004600083815260200190815260200160002060006101000a81548173ffffffffffffffffffffffffffffffffffffffff021916908373ffffffffffffffffffffffffffffffffffffffff160217905550808273ffffffffffffffffffffffffffffffffffffffff1661119b83610aaa565b73ffffffffffffffffffffffffffffffffffffffff167f8c5be1e5ebec7d5bd14f71427d1e84f3dd0314c0f7b2291e5b200ac8c7c3b92560405160405180910390a45050565b6000806111ed83610aaa565b90508073ffffffffffffffffffffffffffffffffffffffff168473ffffffffffffffffffffffffffffffffffffffff16148061122f575061122e8185610f5d565b5b8061126d57508373ffffffffffffffffffffffffffffffffffffffff16611255846105bd565b73ffffffffffffffffffffffffffffffffffffffff16145b91505092915050565b8273ffffffffffffffffffffffffffffffffffffffff1661129682610aaa565b73ffffffffffffffffffffffffffffffffffffffff16146112ec576040517f08c379a00000000000000000000000000000000000000000000000000000000081526004016112e390613ad3565b60405180910390fd5b600073ffffffffffffffffffffffffffffffffffffffff168273ffffffffffffffffffffffffffffffffffffffff160361135b576040517f08c379a000000000000000000000000000000000000000000000000000000000815260040161135290613b65565b60405180910390fd5b6113688383836001611bd3565b8273ffffffffffffffffffffffffffffffffffffffff1661138882610aaa565b73ffffffffffffffffffffffffffffffffffffffff16146113de576040517f08c379a00000000000000000000000000000000000000000000000000000000081526004016113d590613ad3565b60405180910390fd5b6004600082815260200190815260200160002060006101000a81549073ffffffffffffffffffffffffffffffffffffffff02191690556001600360008573ffffffffffffffffffffffffffffffffffffffff1673ffffffffffffffffffffffffffffffffffffffff168152602001908152602001600020600082825403925050819055506001600360008473ffffffffffffffffffffffffffffffffffffffff1673ffffffffffffffffffffffffffffffffffffffff16815260200190815260200160002060008282540192505081905550816002600083815260200190815260200160002060006101000a81548173ffffffffffffffffffffffffffffffffffffffff021916908373ffffffffffffffffffffffffffffffffffffffff160217905550808273ffffffffffffffffffffffffffffffffffffffff168473ffffffffffffffffffffffffffffffffffffffff167fddf252ad1be2c89b69c2b068fc378daa952ba7f163c4a11628f55a4df523b3ef60405160405180910390a461156a8383836001611be5565b505050565b611577611120565b73ffffffffffffffffffffffffffffffffffffffff16611595610db5565b73ffffffffffffffffffffffffffffffffffffffff16146115eb576040517f08c379a00000000000000000000000000000000000000000000000000000000081526004016115e290613bd1565b60405180910390fd5b565b6115f681611beb565b50565b60006002600083815260200190815260200160002060009054906101000a900473ffffffffffffffffffffffffffffffffffffffff169050919050565b6000600b60009054906101000a900473ffffffffffffffffffffffffffffffffffffffff16905081600b60006101000a81548173ffffffffffffffffffffffffffffffffffffffff021916908373ffffffffffffffffffffffffffffffffffffffff1602179055508173ffffffffffffffffffffffffffffffffffffffff168173ffffffffffffffffffffffffffffffffffffffff167f8be0079c531659141344cd1fd0a4f28419497f9722a3daafe3b4186f6b6457e060405160405180910390a35050565b600080620151804261170e9190613944565b9050600d600084815260200190815260200160002060000154600d600085815260200190815260200160002060010160008381526020019081526020016000205410915050919050565b600081600001549050919050565b6001816000016000828254019250508190555050565b611796828260405180602001604052806000815250611c3e565b5050565b6117a382611b92565b6117e2576040517f08c379a00000000000000000000000000000000000000000000000000000000081526004016117d990613c63565b60405180910390fd5b80600a600084815260200190815260200160002090816118029190613e2f565b507ff8e1a15aba9398e019f0b49df1a4fde98ee17ae345cb5f6b5e2c27f5033e8ce7826040516118329190612d1c565b60405180910390a15050565b8173ffffffffffffffffffffffffffffffffffffffff168373ffffffffffffffffffffffffffffffffffffffff16036118ac576040517f08c379a00000000000000000000000000000000000000000000000000000000081526004016118a390613f4d565b60405180910390fd5b80600560008573ffffffffffffffffffffffffffffffffffffffff1673ffffffffffffffffffffffffffffffffffffffff16815260200190815260200160002060008473ffffffffffffffffffffffffffffffffffffffff1673ffffffffffffffffffffffffffffffffffffffff16815260200190815260200160002060006101000a81548160ff0219169083151502179055508173ffffffffffffffffffffffffffffffffffffffff168373ffffffffffffffffffffffffffffffffffffffff167f17307eab39ab6107e8899845ad3d59bd9653f200f220920489ca2b5937696c318360405161199d9190612b15565b60405180910390a3505050565b6119b5848484611276565b6119c184848484611c99565b611a00576040517f08c379a00000000000000000000000000000000000000000000000000000000081526004016119f790613fdf565b60405180910390fd5b50505050565b6060611a11826110d5565b6000600a60008481526020019081526020016000208054611a3190613267565b80601f0160208091040260200160405190810160405280929190818152602001828054611a5d90613267565b8015611aaa5780601f10611a7f57610100808354040283529160200191611aaa565b820191906000526020600020905b815481529060010190602001808311611a8d57829003601f168201915b505050505090506000611abb611e20565b90506000815103611ad0578192505050611b13565b600082511115611b05578082604051602001611aed92919061403b565b60405160208183030381529060405292505050611b13565b611b0e84611e37565b925050505b919050565b60007f780e9d63000000000000000000000000000000000000000000000000000000007bffffffffffffffffffffffffffffffffffffffffffffffffffffffff1916827bffffffffffffffffffffffffffffffffffffffffffffffffffffffff19161480611b8b5750611b8a82611e9f565b5b9050919050565b60008073ffffffffffffffffffffffffffffffffffffffff16611bb4836115f9565b73ffffffffffffffffffffffffffffffffffffffff1614159050919050565b611bdf84848484611f81565b50505050565b50505050565b611bf4816120df565b6000600a60008381526020019081526020016000208054611c1490613267565b905014611c3b57600a60008281526020019081526020016000206000611c3a9190612a04565b5b50565b611c48838361222d565b611c556000848484611c99565b611c94576040517f08c379a0000000000000000000000000000000000000000000000000000000008152600401611c8b90613fdf565b60405180910390fd5b505050565b6000611cba8473ffffffffffffffffffffffffffffffffffffffff1661244a565b15611e13578373ffffffffffffffffffffffffffffffffffffffff1663150b7a02611ce3611120565b8786866040518563ffffffff1660e01b8152600401611d0594939291906140b4565b6020604051808303816000875af1925050508015611d4157506040513d601f19601f82011682018060405250810190611d3e9190614115565b60015b611dc3573d8060008114611d71576040519150601f19603f3d011682016040523d82523d6000602084013e611d76565b606091505b506000815103611dbb576040517f08c379a0000000000000000000000000000000000000000000000000000000008152600401611db290613fdf565b60405180910390fd5b805181602001fd5b63150b7a0260e01b7bffffffffffffffffffffffffffffffffffffffffffffffffffffffff1916817bffffffffffffffffffffffffffffffffffffffffffffffffffffffff191614915050611e18565b600190505b949350505050565b606060405180602001604052806000815250905090565b6060611e42826110d5565b6000611e4c611e20565b90506000815111611e6c5760405180602001604052806000815250611e97565b80611e768461246d565b604051602001611e8792919061403b565b6040516020818303038152906040525b915050919050565b60007f80ac58cd000000000000000000000000000000000000000000000000000000007bffffffffffffffffffffffffffffffffffffffffffffffffffffffff1916827bffffffffffffffffffffffffffffffffffffffffffffffffffffffff19161480611f6a57507f5b5e139f000000000000000000000000000000000000000000000000000000007bffffffffffffffffffffffffffffffffffffffffffffffffffffffff1916827bffffffffffffffffffffffffffffffffffffffffffffffffffffffff1916145b80611f7a5750611f798261253b565b5b9050919050565b611f8d848484846125a5565b6001811115611fd1576040517f08c379a0000000000000000000000000000000000000000000000000000000008152600401611fc8906141b4565b60405180910390fd5b6000829050600073ffffffffffffffffffffffffffffffffffffffff168573ffffffffffffffffffffffffffffffffffffffff160361201857612013816125ab565b612057565b8373ffffffffffffffffffffffffffffffffffffffff168573ffffffffffffffffffffffffffffffffffffffff16146120565761205585826125f4565b5b5b600073ffffffffffffffffffffffffffffffffffffffff168473ffffffffffffffffffffffffffffffffffffffff16036120995761209481612761565b6120d8565b8473ffffffffffffffffffffffffffffffffffffffff168473ffffffffffffffffffffffffffffffffffffffff16146120d7576120d68482612832565b5b5b5050505050565b60006120ea82610aaa565b90506120fa816000846001611bd3565b61210382610aaa565b90506004600083815260200190815260200160002060006101000a81549073ffffffffffffffffffffffffffffffffffffffff02191690556001600360008373ffffffffffffffffffffffffffffffffffffffff1673ffffffffffffffffffffffffffffffffffffffff168152602001908152602001600020600082825403925050819055506002600083815260200190815260200160002060006101000a81549073ffffffffffffffffffffffffffffffffffffffff021916905581600073ffffffffffffffffffffffffffffffffffffffff168273ffffffffffffffffffffffffffffffffffffffff167fddf252ad1be2c89b69c2b068fc378daa952ba7f163c4a11628f55a4df523b3ef60405160405180910390a4612229816000846001611be5565b5050565b600073ffffffffffffffffffffffffffffffffffffffff168273ffffffffffffffffffffffffffffffffffffffff160361229c576040517f08c379a000000000000000000000000000000000000000000000000000000000815260040161229390614220565b60405180910390fd5b6122a581611b92565b156122e5576040517f08c379a00000000000000000000000000000000000000000000000000000000081526004016122dc9061428c565b60405180910390fd5b6122f3600083836001611bd3565b6122fc81611b92565b1561233c576040517f08c379a00000000000000000000000000000000000000000000000000000000081526004016123339061428c565b60405180910390fd5b6001600360008473ffffffffffffffffffffffffffffffffffffffff1673ffffffffffffffffffffffffffffffffffffffff16815260200190815260200160002060008282540192505081905550816002600083815260200190815260200160002060006101000a81548173ffffffffffffffffffffffffffffffffffffffff021916908373ffffffffffffffffffffffffffffffffffffffff160217905550808273ffffffffffffffffffffffffffffffffffffffff16600073ffffffffffffffffffffffffffffffffffffffff167fddf252ad1be2c89b69c2b068fc378daa952ba7f163c4a11628f55a4df523b3ef60405160405180910390a4612446600083836001611be5565b5050565b6000808273ffffffffffffffffffffffffffffffffffffffff163b119050919050565b60606000600161247c846128b1565b01905060008167ffffffffffffffff81111561249b5761249a612ee1565b5b6040519080825280601f01601f1916602001820160405280156124cd5781602001600182028036833780820191505090505b509050600082602001820190505b600115612530578080600190039150507f3031323334353637383961626364656600000000000000000000000000000000600a86061a8153600a858161252457612523613915565b5b049450600085036124db575b819350505050919050565b60007f01ffc9a7000000000000000000000000000000000000000000000000000000007bffffffffffffffffffffffffffffffffffffffffffffffffffffffff1916827bffffffffffffffffffffffffffffffffffffffffffffffffffffffff1916149050919050565b50505050565b6008805490506009600083815260200190815260200160002081905550600881908060018154018082558091505060019003906000526020600020016000909190919091505550565b6000600161260184610b30565b61260b91906142ac565b90506000600760008481526020019081526020016000205490508181146126f0576000600660008673ffffffffffffffffffffffffffffffffffffffff1673ffffffffffffffffffffffffffffffffffffffff168152602001908152602001600020600084815260200190815260200160002054905080600660008773ffffffffffffffffffffffffffffffffffffffff1673ffffffffffffffffffffffffffffffffffffffff168152602001908152602001600020600084815260200190815260200160002081905550816007600083815260200190815260200160002081905550505b6007600084815260200190815260200160002060009055600660008573ffffffffffffffffffffffffffffffffffffffff1673ffffffffffffffffffffffffffffffffffffffff16815260200190815260200160002060008381526020019081526020016000206000905550505050565b6000600160088054905061277591906142ac565b90506000600960008481526020019081526020016000205490506000600883815481106127a5576127a4613655565b5b9060005260206000200154905080600883815481106127c7576127c6613655565b5b906000526020600020018190555081600960008381526020019081526020016000208190555060096000858152602001908152602001600020600090556008805480612816576128156142e0565b5b6001900381819060005260206000200160009055905550505050565b600061283d83610b30565b905081600660008573ffffffffffffffffffffffffffffffffffffffff1673ffffffffffffffffffffffffffffffffffffffff168152602001908152602001600020600083815260200190815260200160002081905550806007600084815260200190815260200160002081905550505050565b600080600090507a184f03e93ff9f4daa797ed6e38ed64bf6a1f010000000000000000831061290f577a184f03e93ff9f4daa797ed6e38ed64bf6a1f010000000000000000838161290557612904613915565b5b0492506040810190505b6d04ee2d6d415b85acef8100000000831061294c576d04ee2d6d415b85acef8100000000838161294257612941613915565b5b0492506020810190505b662386f26fc10000831061297b57662386f26fc10000838161297157612970613915565b5b0492506010810190505b6305f5e10083106129a4576305f5e100838161299a57612999613915565b5b0492506008810190505b61271083106129c95761271083816129bf576129be613915565b5b0492506004810190505b606483106129ec57606483816129e2576129e1613915565b5b0492506002810190505b600a83106129fb576001810190505b80915050919050565b508054612a1090613267565b6000825580601f10612a225750612a41565b601f016020900490600052602060002090810190612a409190612a44565b5b50565b5b80821115612a5d576000816000905550600101612a45565b5090565b6000604051905090565b600080fd5b600080fd5b60007fffffffff0000000000000000000000000000000000000000000000000000000082169050919050565b612aaa81612a75565b8114612ab557600080fd5b50565b600081359050612ac781612aa1565b92915050565b600060208284031215612ae357612ae2612a6b565b5b6000612af184828501612ab8565b91505092915050565b60008115159050919050565b612b0f81612afa565b82525050565b6000602082019050612b2a6000830184612b06565b92915050565b600081519050919050565b600082825260208201905092915050565b60005b83811015612b6a578082015181840152602081019050612b4f565b60008484015250505050565b6000601f19601f8301169050919050565b6000612b9282612b30565b612b9c8185612b3b565b9350612bac818560208601612b4c565b612bb581612b76565b840191505092915050565b60006020820190508181036000830152612bda8184612b87565b905092915050565b6000819050919050565b612bf581612be2565b8114612c0057600080fd5b50565b600081359050612c1281612bec565b92915050565b600060208284031215612c2e57612c2d612a6b565b5b6000612c3c84828501612c03565b91505092915050565b600073ffffffffffffffffffffffffffffffffffffffff82169050919050565b6000612c7082612c45565b9050919050565b612c8081612c65565b82525050565b6000602082019050612c9b6000830184612c77565b92915050565b612caa81612c65565b8114612cb557600080fd5b50565b600081359050612cc781612ca1565b92915050565b60008060408385031215612ce457612ce3612a6b565b5b6000612cf285828601612cb8565b9250506020612d0385828601612c03565b9150509250929050565b612d1681612be2565b82525050565b6000602082019050612d316000830184612d0d565b92915050565b600081519050919050565b600082825260208201905092915050565b6000819050602082019050919050565b612d6c81612be2565b82525050565b6000612d7e8383612d63565b60208301905092915050565b6000602082019050919050565b6000612da282612d37565b612dac8185612d42565b9350612db783612d53565b8060005b83811015612de8578151612dcf8882612d72565b9750612dda83612d8a565b925050600181019050612dbb565b5085935050505092915050565b60006020820190508181036000830152612e0f8184612d97565b905092915050565b600080600060608486031215612e3057612e2f612a6b565b5b6000612e3e86828701612cb8565b9350506020612e4f86828701612cb8565b9250506040612e6086828701612c03565b9150509250925092565b60008060408385031215612e8157612e80612a6b565b5b6000612e8f85828601612c03565b9250506020612ea085828601612c03565b9150509250929050565b600060208284031215612ec057612ebf612a6b565b5b6000612ece84828501612cb8565b91505092915050565b600080fd5b600080fd5b7f4e487b7100000000000000000000000000000000000000000000000000000000600052604160045260246000fd5b612f1982612b76565b810181811067ffffffffffffffff82111715612f3857612f37612ee1565b5b80604052505050565b6000612f4b612a61565b9050612f578282612f10565b919050565b600067ffffffffffffffff821115612f7757612f76612ee1565b5b612f8082612b76565b9050602081019050919050565b82818337600083830152505050565b6000612faf612faa84612f5c565b612f41565b905082815260208101848484011115612fcb57612fca612edc565b5b612fd6848285612f8d565b509392505050565b600082601f830112612ff357612ff2612ed7565b5b8135613003848260208601612f9c565b91505092915050565b6000806040838503121561302357613022612a6b565b5b600061303185828601612c03565b925050602083013567ffffffffffffffff81111561305257613051612a70565b5b61305e85828601612fde565b9150509250929050565b61307181612afa565b811461307c57600080fd5b50565b60008135905061308e81613068565b92915050565b600080604083850312156130ab576130aa612a6b565b5b60006130b985828601612cb8565b92505060206130ca8582860161307f565b9150509250929050565b600067ffffffffffffffff8211156130ef576130ee612ee1565b5b6130f882612b76565b9050602081019050919050565b6000613118613113846130d4565b612f41565b90508281526020810184848401111561313457613133612edc565b5b61313f848285612f8d565b509392505050565b600082601f83011261315c5761315b612ed7565b5b813561316c848260208601613105565b91505092915050565b6000806000806080858703121561318f5761318e612a6b565b5b600061319d87828801612cb8565b94505060206131ae87828801612cb8565b93505060406131bf87828801612c03565b925050606085013567ffffffffffffffff8111156131e0576131df612a70565b5b6131ec87828801613147565b91505092959194509250565b6000806040838503121561320f5761320e612a6b565b5b600061321d85828601612cb8565b925050602061322e85828601612cb8565b9150509250929050565b7f4e487b7100000000000000000000000000000000000000000000000000000000600052602260045260246000fd5b6000600282049050600182168061327f57607f821691505b60208210810361329257613291613238565b5b50919050565b7f4552433732313a20617070726f76616c20746f2063757272656e74206f776e6560008201527f7200000000000000000000000000000000000000000000000000000000000000602082015250565b60006132f4602183612b3b565b91506132ff82613298565b604082019050919050565b60006020820190508181036000830152613323816132e7565b9050919050565b7f4552433732313a20617070726f76652063616c6c6572206973206e6f7420746f60008201527f6b656e206f776e6572206f7220617070726f76656420666f7220616c6c000000602082015250565b6000613386603d83612b3b565b91506133918261332a565b604082019050919050565b600060208201905081810360008301526133b581613379565b9050919050565b7f4552433732313a2063616c6c6572206973206e6f7420746f6b656e206f776e6560008201527f72206f7220617070726f76656400000000000000000000000000000000000000602082015250565b6000613418602d83612b3b565b9150613423826133bc565b604082019050919050565b600060208201905081810360008301526134478161340b565b9050919050565b7f455243373231456e756d657261626c653a206f776e657220696e646578206f7560008201527f74206f6620626f756e6473000000000000000000000000000000000000000000602082015250565b60006134aa602b83612b3b565b91506134b58261344e565b604082019050919050565b600060208201905081810360008301526134d98161349d565b9050919050565b7f4e487b7100000000000000000000000000000000000000000000000000000000600052601160045260246000fd5b600061351a82612be2565b91507fffffffffffffffffffffffffffffffffffffffffffffffffffffffffffffffff820361354c5761354b6134e0565b5b600182019050919050565b7f43616c6c6572206973206e6f74206f776e6572206e6f7220617070726f766564600082015250565b600061358d602083612b3b565b915061359882613557565b602082019050919050565b600060208201905081810360008301526135bc81613580565b9050919050565b7f455243373231456e756d657261626c653a20676c6f62616c20696e646578206f60008201527f7574206f6620626f756e64730000000000000000000000000000000000000000602082015250565b600061361f602c83612b3b565b915061362a826135c3565b604082019050919050565b6000602082019050818103600083015261364e81613612565b9050919050565b7f4e487b7100000000000000000000000000000000000000000000000000000000600052603260045260246000fd5b7f4c6f636174696f6e20616c726561647920657869737473000000000000000000600082015250565b60006136ba601783612b3b565b91506136c582613684565b602082019050919050565b600060208201905081810360008301526136e9816136ad565b9050919050565b60006040820190506137056000830185612d0d565b6137126020830184612d0d565b9392505050565b7f4552433732313a20696e76616c696420746f6b656e2049440000000000000000600082015250565b600061374f601883612b3b565b915061375a82613719565b602082019050919050565b6000602082019050818103600083015261377e81613742565b9050919050565b7f4552433732313a2061646472657373207a65726f206973206e6f74206120766160008201527f6c6964206f776e65720000000000000000000000000000000000000000000000602082015250565b60006137e1602983612b3b565b91506137ec82613785565b604082019050919050565b60006020820190508181036000830152613810816137d4565b9050919050565b7f4c6f636174696f6e20646f6573206e6f74206578697374000000000000000000600082015250565b600061384d601783612b3b565b915061385882613817565b602082019050919050565b6000602082019050818103600083015261387c81613840565b9050919050565b7f4461696c79206d696e74206c696d6974207265616368656420666f722074686960008201527f73206c6f636174696f6e00000000000000000000000000000000000000000000602082015250565b60006138df602a83612b3b565b91506138ea82613883565b604082019050919050565b6000602082019050818103600083015261390e816138d2565b9050919050565b7f4e487b7100000000000000000000000000000000000000000000000000000000600052601260045260246000fd5b600061394f82612be2565b915061395a83612be2565b92508261396a57613969613915565b5b828204905092915050565b600060a08201905061398a6000830188612d0d565b6139976020830187612d0d565b6139a46040830186612c77565b6139b16060830185612d0d565b81810360808301526139c38184612b87565b90509695505050505050565b7f4f776e61626c653a206e6577206f776e657220697320746865207a65726f206160008201527f6464726573730000000000000000000000000000000000000000000000000000602082015250565b6000613a2b602683612b3b565b9150613a36826139cf565b604082019050919050565b60006020820190508181036000830152613a5a81613a1e565b9050919050565b7f4552433732313a207472616e736665722066726f6d20696e636f72726563742060008201527f6f776e6572000000000000000000000000000000000000000000000000000000602082015250565b6000613abd602583612b3b565b9150613ac882613a61565b604082019050919050565b60006020820190508181036000830152613aec81613ab0565b9050919050565b7f4552433732313a207472616e7366657220746f20746865207a65726f2061646460008201527f7265737300000000000000000000000000000000000000000000000000000000602082015250565b6000613b4f602483612b3b565b9150613b5a82613af3565b604082019050919050565b60006020820190508181036000830152613b7e81613b42565b9050919050565b7f4f776e61626c653a2063616c6c6572206973206e6f7420746865206f776e6572600082015250565b6000613bbb602083612b3b565b9150613bc682613b85565b602082019050919050565b60006020820190508181036000830152613bea81613bae565b9050919050565b7f45524337323155524953746f726167653a2055524920736574206f66206e6f6e60008201527f6578697374656e7420746f6b656e000000000000000000000000000000000000602082015250565b6000613c4d602e83612b3b565b9150613c5882613bf1565b604082019050919050565b60006020820190508181036000830152613c7c81613c40565b9050919050565b60008190508160005260206000209050919050565b60006020601f8301049050919050565b600082821b905092915050565b600060088302613ce57fffffffffffffffffffffffffffffffffffffffffffffffffffffffffffffffff82613ca8565b613cef8683613ca8565b95508019841693508086168417925050509392505050565b6000819050919050565b6000613d2c613d27613d2284612be2565b613d07565b612be2565b9050919050565b6000819050919050565b613d4683613d11565b613d5a613d5282613d33565b848454613cb5565b825550505050565b600090565b613d6f613d62565b613d7a818484613d3d565b505050565b5b81811015613d9e57613d93600082613d67565b600181019050613d80565b5050565b601f821115613de357613db481613c83565b613dbd84613c98565b81016020851015613dcc578190505b613de0613dd885613c98565b830182613d7f565b50505b505050565b600082821c905092915050565b6000613e0660001984600802613de8565b1980831691505092915050565b6000613e1f8383613df5565b9150826002028217905092915050565b613e3882612b30565b67ffffffffffffffff811115613e5157613e50612ee1565b5b613e5b8254613267565b613e66828285613da2565b600060209050601f831160018114613e995760008415613e87578287015190505b613e918582613e13565b865550613ef9565b601f198416613ea786613c83565b60005b82811015613ecf57848901518255600182019150602085019450602081019050613eaa565b86831015613eec5784890151613ee8601f891682613df5565b8355505b6001600288020188555050505b505050505050565b7f4552433732313a20617070726f766520746f2063616c6c657200000000000000600082015250565b6000613f37601983612b3b565b9150613f4282613f01565b602082019050919050565b60006020820190508181036000830152613f6681613f2a565b9050919050565b7f4552433732313a207472616e7366657220746f206e6f6e20455243373231526560008201527f63656976657220696d706c656d656e7465720000000000000000000000000000602082015250565b6000613fc9603283612b3b565b9150613fd482613f6d565b604082019050919050565b60006020820190508181036000830152613ff881613fbc565b9050919050565b600081905092915050565b600061401582612b30565b61401f8185613fff565b935061402f818560208601612b4c565b80840191505092915050565b6000614047828561400a565b9150614053828461400a565b91508190509392505050565b600081519050919050565b600082825260208201905092915050565b60006140868261405f565b614090818561406a565b93506140a0818560208601612b4c565b6140a981612b76565b840191505092915050565b60006080820190506140c96000830187612c77565b6140d66020830186612c77565b6140e36040830185612d0d565b81810360608301526140f5818461407b565b905095945050505050565b60008151905061410f81612aa1565b92915050565b60006020828403121561412b5761412a612a6b565b5b600061413984828501614100565b91505092915050565b7f455243373231456e756d657261626c653a20636f6e736563757469766520747260008201527f616e7366657273206e6f7420737570706f727465640000000000000000000000602082015250565b600061419e603583612b3b565b91506141a982614142565b604082019050919050565b600060208201905081810360008301526141cd81614191565b9050919050565b7f4552433732313a206d696e7420746f20746865207a65726f2061646472657373600082015250565b600061420a602083612b3b565b9150614215826141d4565b602082019050919050565b60006020820190508181036000830152614239816141fd565b9050919050565b7f4552433732313a20746f6b656e20616c7265616479206d696e74656400000000600082015250565b6000614276601c83612b3b565b915061428182614240565b602082019050919050565b600060208201905081810360008301526142a581614269565b9050919050565b60006142b782612be2565b91506142c283612be2565b92508282039050818111156142da576142d96134e0565b5b92915050565b7f4e487b7100000000000000000000000000000000000000000000000000000000600052603160045260246000fdfea26469706673582212209f580e2bd23c13753ccea219e856dd9299753d535476605a6058eb747127bc6b64736f6c63430008180033",
  "linkReferences": {},
  "deployedLinkReferences": {}
}