{
  "_format": "hh-sol-artifact-1",
  "contractName": "TouristNFT",
  "sourceName": "contracts/TouristNFT.sol",
  "abi": [
    {
      "inputs": [],
      "stateMutability": "nonpayable",
      "type": "constructor"
    },
    {
      "anonymous": false,
      "inputs": [
        {
          "indexed": true,
          "internalType": "address",
          "name": "owner",
          "type": "address"
        },
        {
          "indexed": true,
          "internalType": "address",
          "name": "approved",
          "type": "address"
        },
        {
          "indexed": true,
          "internalType": "uint256",
          "name": "tokenId",
          "type": "uint256"
        }
      ],
      "name": "Approval",
      "type": "event"
    },
    {
      "anonymous": false,
      "inputs": [
        {
          "indexed": true,
          "internalType": "address",
          "name": "owner",
          "type": "address"
        },
        {
          "indexed": true,
          "internalType": "address",
          "name": "operator",
          "type": "address"
        },
        {
          "indexed": false,
          "internalType": "bool",
          "name": "approved",
          "type": "bool"
        }
      ],
      "name": "ApprovalForAll",
      "type": "event"
    },
    {
      "anonymous": false,
      "inputs": [
        {
          "indexed": false,
          "internalType": "uint256",
          "name": "_fromTokenId",
          "type": "uint256"
        },
        {
          "indexed": false,
          "internalType": "uint256",
          "name": "_toTokenId",
          "type": "uint256"
        }
      ],
      "name": "BatchMetadataUpdate",
      "type": "event"
    },
    {
      "anonymous": false,
      "inputs": [
        {
          "indexed": false,
          "internalType": "uint256",
          "name": "locationId",
          "type": "uint256"
        },
        {
          "indexed": false,
          "internalType": "uint256",
          "name": "dailyMintLimit",
          "type": "uint256"
        }
      ],
      "name": "LocationAdded",
      "type": "event"
    },
    {
      "anonymous": false,
      "inputs": [
        {
          "indexed": false,
          "internalType": "uint256",
          "name": "_tokenId",
          "type": "uint256"
        }
      ],
      "name": "MetadataUpdate",
      "type": "event"
    },
    {
      "anonymous": false,
      "inputs": [
        {
          "indexed": false,
          "internalType": "uint256",
          "name": "tokenId",
          "type": "uint256"
        },
        {
          "indexed": false,
          "internalType": "uint256",
          "name": "locationId",
          "type": "uint256"
        },
        {
          "indexed": false,
          "internalType": "address",
          "name": "recipient",
          "type": "address"
        },
        {
          "indexed": false,
          "internalType": "uint256",
          "name": "timestamp",
          "type": "uint256"
        },
        {
          "indexed": false,
          "internalType": "string",
          "name": "tokenURI",
          "type": "string"
        }
      ],
      "name": "NFTMinted",
      "type": "event"
    },
    {
      "anonymous": false,
      "inputs": [
        {
          "indexed": true,
          "internalType": "address",
          "name": "previousOwner",
          "type": "address"
        },
        {
          "indexed": true,
          "internalType": "address",
          "name": "newOwner",
          "type": "address"
        }
      ],
      "name": "OwnershipTransferred",
      "type": "event"
    },
    {
      "anonymous": false,
      "inputs": [
        {
          "indexed": true,
          "internalType": "address",
          "name": "from",
          "type": "address"
        },
        {
          "indexed": true,
          "internalType": "address",
          "name": "to",
          "type": "address"
        },
        {
          "indexed": true,
          "internalType": "uint256",
          "name": "tokenId",
          "type": "uint256"
        }
      ],
      "name": "Transfer",
      "type": "event"
    },
    {
      "inputs": [
        {
          "internalType": "uint256",
          "name": "locationId",
          "type": "uint256"
        },
        {
          "internalType": "uint256",
          "name": "dailyMintLimit",
          "type": "uint256"
        }
      ],
      "name": "addLocation",
      "outputs": [],
      "stateMutability": "nonpayable",
      "type": "function"
    },
    {
      "inputs": [
        {
          "internalType": "address",
          "name": "to",
          "type": "address"
        },
        {
          "internalType": "uint256",
          "name": "tokenId",
          "type": "uint256"
        }
      ],
      "name": "approve",
      "outputs": [],
      "stateMutability": "nonpayable",
      "type": "function"
    },
    {
      "inputs": [
        {
          "internalType": "address",
          "name": "owner",
          "type": "address"
        }
      ],
      "name": "balanceOf",
      "outputs": [
        {
          "internalType": "uint256",
          "name": "",
          "type": "uint256"
        }
      ],
      "stateMutability": "view",
      "type": "function"
    },
    {
      "inputs": [],
      "name": "getAllLocationIds",
      "outputs": [
        {
          "internalType": "uint256[]",
          "name": "",
          "type": "uint256[]"
        }
      ],
      "stateMutability": "view",
      "type": "function"
    },
    {
      "inputs": [
        {
          "internalType": "uint256",
          "name": "tokenId",
          "type": "uint256"
        }
      ],
      "name": "getApproved",
      "outputs": [
        {
          "internalType": "address",
          "name": "",
          "type": "address"
        }
      ],
      "stateMutability": "view",
      "type": "function"
    },
    {
      "inputs": [
        {
          "internalType": "uint256",
          "name": "locationId",
          "type": "uint256"
        }
      ],
      "name": "getDailyMintCount",
      "outputs": [
        {
          "internalType": "uint256",
          "name": "",
          "type": "uint256"
        }
      ],
      "stateMutability": "view",
      "type": "function"
    },
    {
      "inputs": [],
      "name": "initializeLocations",
      "outputs": [],
      "stateMutability": "nonpayable",
      "type": "function"
    },
    {
      "inputs": [
        {
          "internalType": "address",
          "name": "owner",
          "type": "address"
        },
        {
          "internalType": "address",
          "name": "operator",
          "type": "address"
        }
      ],
      "name": "isApprovedForAll",
      "outputs": [
        {
          "internalType": "bool",
          "name": "",
          "type": "bool"
        }
      ],
      "stateMutability": "view",
      "type": "function"
    },
    {
      "inputs": [
        {
          "internalType": "uint256",
          "name": "",
          "type": "uint256"
        }
      ],
      "name": "locations",
      "outputs": [
        {
          "internalType": "uint256",
          "name": "dailyMintLimit",
          "type": "uint256"
        }
      ],
      "stateMutability": "view",
      "type": "function"
    },
    {
      "inputs": [
        {
          "internalType": "uint256",
          "name": "locationId",
          "type": "uint256"
        },
        {
          "internalType": "string",
          "name": "_tokenURI",
          "type": "string"
        }
      ],
      "name": "mint",
      "outputs": [],
      "stateMutability": "nonpayable",
      "type": "function"
    },
    {
      "inputs": [],
      "name": "name",
      "outputs": [
        {
          "internalType": "string",
          "name": "",
          "type": "string"
        }
      ],
      "stateMutability": "view",
      "type": "function"
    },
    {
      "inputs": [],
      "name": "owner",
      "outputs": [
        {
          "internalType": "address",
          "name": "",
          "type": "address"
        }
      ],
      "stateMutability": "view",
      "type": "function"
    },
    {
      "inputs": [
        {
          "internalType": "uint256",
          "name": "tokenId",
          "type": "uint256"
        }
      ],
      "name": "ownerOf",
      "outputs": [
        {
          "internalType": "address",
          "name": "",
          "type": "address"
        }
      ],
      "stateMutability": "view",
      "type": "function"
    },
    {
      "inputs": [],
      "name": "renounceOwnership",
      "outputs": [],
      "stateMutability": "nonpayable",
      "type": "function"
    },
    {
      "inputs": [
        {
          "internalType": "address",
          "name": "from",
          "type": "address"
        },
        {
          "internalType": "address",
          "name": "to",
          "type": "address"
        },
        {
          "internalType": "uint256",
          "name": "tokenId",
          "type": "uint256"
        }
      ],
      "name": "safeTransferFrom",
      "outputs": [],
      "stateMutability": "nonpayable",
      "type": "function"
    },
    {
      "inputs": [
        {
          "internalType": "address",
          "name": "from",
          "type": "address"
        },
        {
          "internalType": "address",
          "name": "to",
          "type": "address"
        },
        {
          "internalType": "uint256",
          "name": "tokenId",
          "type": "uint256"
        },
        {
          "internalType": "bytes",
          "name": "data",
          "type": "bytes"
        }
      ],
      "name": "safeTransferFrom",
      "outputs": [],
      "stateMutability": "nonpayable",
      "type": "function"
    },
    {
      "inputs": [
        {
          "internalType": "address",
          "name": "operator",
          "type": "address"
        },
        {
          "internalType": "bool",
          "name": "approved",
          "type": "bool"
        }
      ],
      "name": "setApprovalForAll",
      "outputs": [],
      "stateMutability": "nonpayable",
      "type": "function"
    },
    {
      "inputs": [
        {
          "internalType": "bytes4",
          "name": "interfaceId",
          "type": "bytes4"
        }
      ],
      "name": "supportsInterface",
      "outputs": [
        {
          "internalType": "bool",
          "name": "",
          "type": "bool"
        }
      ],
      "stateMutability": "view",
      "type": "function"
    },
    {
      "inputs": [],
      "name": "symbol",
      "outputs": [
        {
          "internalType": "string",
          "name": "",
          "type": "string"
        }
      ],
      "stateMutability": "view",
      "type": "function"
    },
    {
      "inputs": [
        {
          "internalType": "uint256",
          "name": "index",
          "type": "uint256"
        }
      ],
      "name": "tokenByIndex",
      "outputs": [
        {
          "internalType": "uint256",
          "name": "",
          "type": "uint256"
        }
      ],
      "stateMutability": "view",
      "type": "function"
    },
    {
      "inputs": [
        {
          "internalType": "address",
          "name": "owner",
          "type": "address"
        },
        {
          "internalType": "uint256",
          "name": "index",
          "type": "uint256"
        }
      ],
      "name": "tokenOfOwnerByIndex",
      "outputs": [
        {
          "internalType": "uint256",
          "name": "",
          "type": "uint256"
        }
      ],
      "stateMutability": "view",
      "type": "function"
    },
    {
      "inputs": [
        {
          "internalType": "uint256",
          "name": "tokenId",
          "type": "uint256"
        }
      ],
      "name": "tokenURI",
      "outputs": [
        {
          "internalType": "string",
          "name": "",
          "type": "string"
        }
      ],
      "stateMutability": "view",
      "type": "function"
    },
    {
      "inputs": [],
      "name": "totalSupply",
      "outputs": [
        {
          "internalType": "uint256",
          "name": "",
          "type": "uint256"
        }
      ],
      "stateMutability": "view",
      "type": "function"
    },
    {
      "inputs": [
        {
          "internalType": "address",
          "name": "from",
          "type": "address"
        },
        {
          "internalType": "address",
          "name": "to",
          "type": "address"
        },
        {
          "internalType": "uint256",
          "name": "tokenId",
          "type": "uint256"
        }
      ],
      "name": "transferFrom",
      "outputs": [],
      "stateMutability": "nonpayable",
      "type": "function"
    },
    {
      "inputs": [
        {
          "internalType": "address",
          "name": "newOwner",
          "type": "address"
        }
      ],
      "name": "transferOwnership",
      "outputs": [],
      "stateMutability": "nonpayable",
      "type": "function"
    }
  ],
  "bytecode": "0x60806040523480156200001157600080fd5b506040518060400160405280600a81526020017f546f75726973744e4654000000000000000000000000000000000000000000008152506040518060400160405280600481526020017f544e46540000000000000000000000000000000000000000000000000000000081525081600090816200008f919062000412565b508060019081620000a1919062000412565b505050620000c4620000b8620000ca60201b60201c565b620000d260201b60201c565b620004f9565b600033905090565b6000600b60009054906101000a900473ffffffffffffffffffffffffffffffffffffffff16905081600b60006101000a81548173ffffffffffffffffffffffffffffffffffffffff021916908373ffffffffffffffffffffffffffffffffffffffff1602179055508173ffffffffffffffffffffffffffffffffffffffff168173ffffffffffffffffffffffffffffffffffffffff167f8be0079c531659141344cd1fd0a4f28419497f9722a3daafe3b4186f6b6457e060405160405180910390a35050565b600081519050919050565b7f4e487b7100000000000000000000000000000000000000000000000000000000600052604160045260246000fd5b7f4e487b7100000000000000000000000000000000000000000000000000000000600052602260045260246000fd5b600060028204905060018216806200021a57607f821691505b60208210810362000230576200022f620001d2565b5b50919050565b60008190508160005260206000209050919050565b60006020601f8301049050919050565b600082821b905092915050565b6000600883026200029a7fffffffffffffffffffffffffffffffffffffffffffffffffffffffffffffffff826200025b565b620002a686836200025b565b95508019841693508086168417925050509392505050565b6000819050919050565b6000819050919050565b6000620002f3620002ed620002e784620002be565b620002c8565b620002be565b9050919050565b6000819050919050565b6200030f83620002d2565b620003276200031e82620002fa565b84845462000268565b825550505050565b600090565b6200033e6200032f565b6200034b81848462000304565b505050565b5b8181101562000373576200036760008262000334565b60018101905062000351565b5050565b601f821115620003c2576200038c8162000236565b62000397846200024b565b81016020851015620003a7578190505b620003bf620003b6856200024b565b83018262000350565b50505b505050565b600082821c905092915050565b6000620003e760001984600802620003c7565b1980831691505092915050565b6000620004028383620003d4565b9150826002028217905092915050565b6200041d8262000198565b67ffffffffffffffff811115620004395762000438620001a3565b5b62000445825462000201565b6200045282828562000377565b600060209050601f8311600181146200048a576000841562000475578287015190505b620004818582620003f4565b865550620004f1565b601f1984166200049a8662000236565b60005b82811015620004c4578489015182556001820191506020850194506020810190506200049d565b86831015620004e45784890151620004e0601f891682620003d4565b8355505b6001600288020188555050505b505050505050565b61418b80620005096000396000f3fe608060405234801561001057600080fd5b50600436106101735760003560e01c80636352211e116100de578063a22cb46511610097578063c87b56dd11610071578063c87b56dd14610436578063d6503af814610466578063e985e9c514610496578063f2fde38b146104c657610173565b8063a22cb465146103ce578063b88d4fde146103ea578063b9e0db351461040657610173565b80636352211e1461030c57806370a082311461033c578063715018a61461036c57806377097fc8146103765780638da5cb5b1461039257806395d89b41146103b057610173565b806323b872dd1161013057806323b872dd1461024e5780632f745c591461026a57806331ba2dbc1461029a57806342842e0e146102a45780634f6ccce7146102c057806350e2304c146102f057610173565b806301ffc9a71461017857806306fdde03146101a8578063081812fc146101c6578063095ea7b3146101f657806318160ddd146102125780631fc27d5314610230575b600080fd5b610192600480360381019061018d91906128ed565b6104e2565b60405161019f9190612935565b60405180910390f35b6101b06104f4565b6040516101bd91906129e0565b60405180910390f35b6101e060048036038101906101db9190612a38565b610586565b6040516101ed9190612aa6565b60405180910390f35b610210600480360381019061020b9190612aed565b6105cc565b005b61021a6106e3565b6040516102279190612b3c565b60405180910390f35b6102386106f0565b6040516102459190612c15565b60405180910390f35b61026860048036038101906102639190612c37565b610748565b005b610284600480360381019061027f9190612aed565b6107a8565b6040516102919190612b3c565b60405180910390f35b6102a261084d565b005b6102be60048036038101906102b99190612c37565b6108a4565b005b6102da60048036038101906102d59190612a38565b6108c4565b6040516102e79190612b3c565b60405180910390f35b61030a60048036038101906103059190612c8a565b610935565b005b61032660048036038101906103219190612a38565b610a17565b6040516103339190612aa6565b60405180910390f35b61035660048036038101906103519190612cca565b610a9d565b6040516103639190612b3c565b60405180910390f35b610374610b54565b005b610390600480360381019061038b9190612e2c565b610b68565b005b61039a610d6b565b6040516103a79190612aa6565b60405180910390f35b6103b8610d95565b6040516103c591906129e0565b60405180910390f35b6103e860048036038101906103e39190612eb4565b610e27565b005b61040460048036038101906103ff9190612f95565b610e3d565b005b610420600480360381019061041b9190612a38565b610e9f565b60405161042d9190612b3c565b60405180910390f35b610450600480360381019061044b9190612a38565b610ebd565b60405161045d91906129e0565b60405180910390f35b610480600480360381019061047b9190612a38565b610ecf565b60405161048d9190612b3c565b60405180910390f35b6104b060048036038101906104ab9190613018565b610f13565b6040516104bd9190612935565b60405180910390f35b6104e060048036038101906104db9190612cca565b610fa7565b005b60006104ed8261102a565b9050919050565b60606000805461050390613087565b80601f016020809104026020016040519081016040528092919081815260200182805461052f90613087565b801561057c5780601f106105515761010080835404028352916020019161057c565b820191906000526020600020905b81548152906001019060200180831161055f57829003601f168201915b5050505050905090565b60006105918261108b565b6004600083815260200190815260200160002060009054906101000a900473ffffffffffffffffffffffffffffffffffffffff169050919050565b60006105d782610a17565b90508073ffffffffffffffffffffffffffffffffffffffff168373ffffffffffffffffffffffffffffffffffffffff1603610647576040517f08c379a000000000000000000000000000000000000000000000000000000000815260040161063e9061312a565b60405180910390fd5b8073ffffffffffffffffffffffffffffffffffffffff166106666110d6565b73ffffffffffffffffffffffffffffffffffffffff16148061069557506106948161068f6110d6565b610f13565b5b6106d4576040517f08c379a00000000000000000000000000000000000000000000000000000000081526004016106cb906131bc565b60405180910390fd5b6106de83836110de565b505050565b6000600880549050905090565b6060600f80548060200260200160405190810160405280929190818152602001828054801561073e57602002820191906000526020600020905b81548152602001906001019080831161072a575b5050505050905090565b6107596107536110d6565b82611197565b610798576040517f08c379a000000000000000000000000000000000000000000000000000000000815260040161078f9061324e565b60405180910390fd5b6107a383838361122c565b505050565b60006107b383610a9d565b82106107f4576040517f08c379a00000000000000000000000000000000000000000000000000000000081526004016107eb906132e0565b60405180910390fd5b600660008473ffffffffffffffffffffffffffffffffffffffff1673ffffffffffffffffffffffffffffffffffffffff168152602001908152602001600020600083815260200190815260200160002054905092915050565b610855611525565b6000600190505b600a81116108a1576000600d6000838152602001908152602001600020600001540361088e5761088d81600a610935565b5b80806108999061332f565b91505061085c565b50565b6108bf83838360405180602001604052806000815250610e3d565b505050565b60006108ce6106e3565b821061090f576040517f08c379a0000000000000000000000000000000000000000000000000000000008152600401610906906133e9565b60405180910390fd5b6008828154811061092357610922613409565b5b90600052602060002001549050919050565b61093d611525565b6000600d60008481526020019081526020016000206000015414610996576040517f08c379a000000000000000000000000000000000000000000000000000000000815260040161098d90613484565b60405180910390fd5b80600d600084815260200190815260200160002060000181905550600f8290806001815401808255809150506001900390600052602060002001600090919091909150557f4fe296729239935ed5fdee6ae0b96ee916574dca066718fa9fbaba375cd3fd078282604051610a0b9291906134a4565b60405180910390a15050565b600080610a23836115a3565b9050600073ffffffffffffffffffffffffffffffffffffffff168173ffffffffffffffffffffffffffffffffffffffff1603610a94576040517f08c379a0000000000000000000000000000000000000000000000000000000008152600401610a8b90613519565b60405180910390fd5b80915050919050565b60008073ffffffffffffffffffffffffffffffffffffffff168273ffffffffffffffffffffffffffffffffffffffff1603610b0d576040517f08c379a0000000000000000000000000000000000000000000000000000000008152600401610b04906135ab565b60405180910390fd5b600360008373ffffffffffffffffffffffffffffffffffffffff1673ffffffffffffffffffffffffffffffffffffffff168152602001908152602001600020549050919050565b610b5c611525565b610b6660006115e0565b565b6000600d60008481526020019081526020016000206000015411610bc1576040517f08c379a0000000000000000000000000000000000000000000000000000000008152600401610bb890613617565b60405180910390fd5b610bca826116a6565b610c09576040517f08c379a0000000000000000000000000000000000000000000000000000000008152600401610c00906136a9565b60405180910390fd5b610c138233611702565b610c52576040517f08c379a0000000000000000000000000000000000000000000000000000000008152600401610c499061373b565b60405180910390fd5b6000610c5e600c611776565b9050610c6a600c611784565b610c74338261179a565b610c7e81836117b8565b60006201518042610c8f919061378a565b9050600d600085815260200190815260200160002060010160008281526020019081526020016000206000815480929190610cc99061332f565b919050555080600d600086815260200190815260200160002060020160003373ffffffffffffffffffffffffffffffffffffffff1673ffffffffffffffffffffffffffffffffffffffff168152602001908152602001600020819055507f1993d960236f0e88f2a6f20267f77cf257e71924c31190d72b1446e322b893168285334287604051610d5d9594939291906137bb565b60405180910390a150505050565b6000600b60009054906101000a900473ffffffffffffffffffffffffffffffffffffffff16905090565b606060018054610da490613087565b80601f0160208091040260200160405190810160405280929190818152602001828054610dd090613087565b8015610e1d5780601f10610df257610100808354040283529160200191610e1d565b820191906000526020600020905b815481529060010190602001808311610e0057829003601f168201915b5050505050905090565b610e39610e326110d6565b838361185c565b5050565b610e4e610e486110d6565b83611197565b610e8d576040517f08c379a0000000000000000000000000000000000000000000000000000000008152600401610e849061324e565b60405180910390fd5b610e99848484846119c8565b50505050565b600d6020528060005260406000206000915090508060000154905081565b6060610ec882611a24565b9050919050565b6000806201518042610ee1919061378a565b9050600d6000848152602001908152602001600020600101600082815260200190815260200160002054915050919050565b6000600560008473ffffffffffffffffffffffffffffffffffffffff1673ffffffffffffffffffffffffffffffffffffffff16815260200190815260200160002060008373ffffffffffffffffffffffffffffffffffffffff1673ffffffffffffffffffffffffffffffffffffffff16815260200190815260200160002060009054906101000a900460ff16905092915050565b610faf611525565b600073ffffffffffffffffffffffffffffffffffffffff168173ffffffffffffffffffffffffffffffffffffffff160361101e576040517f08c379a000000000000000000000000000000000000000000000000000000000815260040161101590613887565b60405180910390fd5b611027816115e0565b50565b6000634906490660e01b7bffffffffffffffffffffffffffffffffffffffffffffffffffffffff1916827bffffffffffffffffffffffffffffffffffffffffffffffffffffffff19161480611084575061108382611b36565b5b9050919050565b61109481611bb0565b6110d3576040517f08c379a00000000000000000000000000000000000000000000000000000000081526004016110ca90613519565b60405180910390fd5b50565b600033905090565b816004600083815260200190815260200160002060006101000a81548173ffffffffffffffffffffffffffffffffffffffff021916908373ffffffffffffffffffffffffffffffffffffffff160217905550808273ffffffffffffffffffffffffffffffffffffffff1661115183610a17565b73ffffffffffffffffffffffffffffffffffffffff167f8c5be1e5ebec7d5bd14f71427d1e84f3dd0314c0f7b2291e5b200ac8c7c3b92560405160405180910390a45050565b6000806111a383610a17565b90508073ffffffffffffffffffffffffffffffffffffffff168473ffffffffffffffffffffffffffffffffffffffff1614806111e557506111e48185610f13565b5b8061122357508373ffffffffffffffffffffffffffffffffffffffff1661120b84610586565b73ffffffffffffffffffffffffffffffffffffffff16145b91505092915050565b8273ffffffffffffffffffffffffffffffffffffffff1661124c82610a17565b73ffffffffffffffffffffffffffffffffffffffff16146112a2576040517f08c379a000000000000000000000000000000000000000000000000000000000815260040161129990613919565b60405180910390fd5b600073ffffffffffffffffffffffffffffffffffffffff168273ffffffffffffffffffffffffffffffffffffffff1603611311576040517f08c379a0000000000000000000000000000000000000000000000000000000008152600401611308906139ab565b60405180910390fd5b61131e8383836001611bf1565b8273ffffffffffffffffffffffffffffffffffffffff1661133e82610a17565b73ffffffffffffffffffffffffffffffffffffffff1614611394576040517f08c379a000000000000000000000000000000000000000000000000000000000815260040161138b90613919565b60405180910390fd5b6004600082815260200190815260200160002060006101000a81549073ffffffffffffffffffffffffffffffffffffffff02191690556001600360008573ffffffffffffffffffffffffffffffffffffffff1673ffffffffffffffffffffffffffffffffffffffff168152602001908152602001600020600082825403925050819055506001600360008473ffffffffffffffffffffffffffffffffffffffff1673ffffffffffffffffffffffffffffffffffffffff16815260200190815260200160002060008282540192505081905550816002600083815260200190815260200160002060006101000a81548173ffffffffffffffffffffffffffffffffffffffff021916908373ffffffffffffffffffffffffffffffffffffffff160217905550808273ffffffffffffffffffffffffffffffffffffffff168473ffffffffffffffffffffffffffffffffffffffff167fddf252ad1be2c89b69c2b068fc378daa952ba7f163c4a11628f55a4df523b3ef60405160405180910390a46115208383836001611c03565b505050565b61152d6110d6565b73ffffffffffffffffffffffffffffffffffffffff1661154b610d6b565b73ffffffffffffffffffffffffffffffffffffffff16146115a1576040517f08c379a000000000000000000000000000000000000000000000000000000000815260040161159890613a17565b60405180910390fd5b565b60006002600083815260200190815260200160002060009054906101000a900473ffffffffffffffffffffffffffffffffffffffff169050919050565b6000600b60009054906101000a900473ffffffffffffffffffffffffffffffffffffffff16905081600b60006101000a81548173ffffffffffffffffffffffffffffffffffffffff021916908373ffffffffffffffffffffffffffffffffffffffff1602179055508173ffffffffffffffffffffffffffffffffffffffff168173ffffffffffffffffffffffffffffffffffffffff167f8be0079c531659141344cd1fd0a4f28419497f9722a3daafe3b4186f6b6457e060405160405180910390a35050565b60008062015180426116b8919061378a565b9050600d600084815260200190815260200160002060000154600d600085815260200190815260200160002060010160008381526020019081526020016000205410915050919050565b6000806201518042611714919061378a565b905080600d600086815260200190815260200160002060020160008573ffffffffffffffffffffffffffffffffffffffff1673ffffffffffffffffffffffffffffffffffffffff16815260200190815260200160002054141591505092915050565b600081600001549050919050565b6001816000016000828254019250508190555050565b6117b4828260405180602001604052806000815250611c09565b5050565b6117c182611bb0565b611800576040517f08c379a00000000000000000000000000000000000000000000000000000000081526004016117f790613aa9565b60405180910390fd5b80600a600084815260200190815260200160002090816118209190613c75565b507ff8e1a15aba9398e019f0b49df1a4fde98ee17ae345cb5f6b5e2c27f5033e8ce7826040516118509190612b3c565b60405180910390a15050565b8173ffffffffffffffffffffffffffffffffffffffff168373ffffffffffffffffffffffffffffffffffffffff16036118ca576040517f08c379a00000000000000000000000000000000000000000000000000000000081526004016118c190613d93565b60405180910390fd5b80600560008573ffffffffffffffffffffffffffffffffffffffff1673ffffffffffffffffffffffffffffffffffffffff16815260200190815260200160002060008473ffffffffffffffffffffffffffffffffffffffff1673ffffffffffffffffffffffffffffffffffffffff16815260200190815260200160002060006101000a81548160ff0219169083151502179055508173ffffffffffffffffffffffffffffffffffffffff168373ffffffffffffffffffffffffffffffffffffffff167f17307eab39ab6107e8899845ad3d59bd9653f200f220920489ca2b5937696c31836040516119bb9190612935565b60405180910390a3505050565b6119d384848461122c565b6119df84848484611c64565b611a1e576040517f08c379a0000000000000000000000000000000000000000000000000000000008152600401611a1590613e25565b60405180910390fd5b50505050565b6060611a2f8261108b565b6000600a60008481526020019081526020016000208054611a4f90613087565b80601f0160208091040260200160405190810160405280929190818152602001828054611a7b90613087565b8015611ac85780601f10611a9d57610100808354040283529160200191611ac8565b820191906000526020600020905b815481529060010190602001808311611aab57829003601f168201915b505050505090506000611ad9611deb565b90506000815103611aee578192505050611b31565b600082511115611b23578082604051602001611b0b929190613e81565b60405160208183030381529060405292505050611b31565b611b2c84611e02565b925050505b919050565b60007f780e9d63000000000000000000000000000000000000000000000000000000007bffffffffffffffffffffffffffffffffffffffffffffffffffffffff1916827bffffffffffffffffffffffffffffffffffffffffffffffffffffffff19161480611ba95750611ba882611e6a565b5b9050919050565b60008073ffffffffffffffffffffffffffffffffffffffff16611bd2836115a3565b73ffffffffffffffffffffffffffffffffffffffff1614159050919050565b611bfd84848484611f4c565b50505050565b50505050565b611c1383836120aa565b611c206000848484611c64565b611c5f576040517f08c379a0000000000000000000000000000000000000000000000000000000008152600401611c5690613e25565b60405180910390fd5b505050565b6000611c858473ffffffffffffffffffffffffffffffffffffffff166122c7565b15611dde578373ffffffffffffffffffffffffffffffffffffffff1663150b7a02611cae6110d6565b8786866040518563ffffffff1660e01b8152600401611cd09493929190613efa565b6020604051808303816000875af1925050508015611d0c57506040513d601f19601f82011682018060405250810190611d099190613f5b565b60015b611d8e573d8060008114611d3c576040519150601f19603f3d011682016040523d82523d6000602084013e611d41565b606091505b506000815103611d86576040517f08c379a0000000000000000000000000000000000000000000000000000000008152600401611d7d90613e25565b60405180910390fd5b805181602001fd5b63150b7a0260e01b7bffffffffffffffffffffffffffffffffffffffffffffffffffffffff1916817bffffffffffffffffffffffffffffffffffffffffffffffffffffffff191614915050611de3565b600190505b949350505050565b606060405180602001604052806000815250905090565b6060611e0d8261108b565b6000611e17611deb565b90506000815111611e375760405180602001604052806000815250611e62565b80611e41846122ea565b604051602001611e52929190613e81565b6040516020818303038152906040525b915050919050565b60007f80ac58cd000000000000000000000000000000000000000000000000000000007bffffffffffffffffffffffffffffffffffffffffffffffffffffffff1916827bffffffffffffffffffffffffffffffffffffffffffffffffffffffff19161480611f3557507f5b5e139f000000000000000000000000000000000000000000000000000000007bffffffffffffffffffffffffffffffffffffffffffffffffffffffff1916827bffffffffffffffffffffffffffffffffffffffffffffffffffffffff1916145b80611f455750611f44826123b8565b5b9050919050565b611f5884848484612422565b6001811115611f9c576040517f08c379a0000000000000000000000000000000000000000000000000000000008152600401611f9390613ffa565b60405180910390fd5b6000829050600073ffffffffffffffffffffffffffffffffffffffff168573ffffffffffffffffffffffffffffffffffffffff1603611fe357611fde81612428565b612022565b8373ffffffffffffffffffffffffffffffffffffffff168573ffffffffffffffffffffffffffffffffffffffff1614612021576120208582612471565b5b5b600073ffffffffffffffffffffffffffffffffffffffff168473ffffffffffffffffffffffffffffffffffffffff16036120645761205f816125de565b6120a3565b8473ffffffffffffffffffffffffffffffffffffffff168473ffffffffffffffffffffffffffffffffffffffff16146120a2576120a184826126af565b5b5b5050505050565b600073ffffffffffffffffffffffffffffffffffffffff168273ffffffffffffffffffffffffffffffffffffffff1603612119576040517f08c379a000000000000000000000000000000000000000000000000000000000815260040161211090614066565b60405180910390fd5b61212281611bb0565b15612162576040517f08c379a0000000000000000000000000000000000000000000000000000000008152600401612159906140d2565b60405180910390fd5b612170600083836001611bf1565b61217981611bb0565b156121b9576040517f08c379a00000000000000000000000000000000000000000000000000000000081526004016121b0906140d2565b60405180910390fd5b6001600360008473ffffffffffffffffffffffffffffffffffffffff1673ffffffffffffffffffffffffffffffffffffffff16815260200190815260200160002060008282540192505081905550816002600083815260200190815260200160002060006101000a81548173ffffffffffffffffffffffffffffffffffffffff021916908373ffffffffffffffffffffffffffffffffffffffff160217905550808273ffffffffffffffffffffffffffffffffffffffff16600073ffffffffffffffffffffffffffffffffffffffff167fddf252ad1be2c89b69c2b068fc378daa952ba7f163c4a11628f55a4df523b3ef60405160405180910390a46122c3600083836001611c03565b5050565b6000808273ffffffffffffffffffffffffffffffffffffffff163b119050919050565b6060600060016122f98461272e565b01905060008167ffffffffffffffff81111561231857612317612d01565b5b6040519080825280601f01601f19166020018201604052801561234a5781602001600182028036833780820191505090505b509050600082602001820190505b6001156123ad578080600190039150507f3031323334353637383961626364656600000000000000000000000000000000600a86061a8153600a85816123a1576123a061375b565b5b04945060008503612358575b819350505050919050565b60007f01ffc9a7000000000000000000000000000000000000000000000000000000007bffffffffffffffffffffffffffffffffffffffffffffffffffffffff1916827bffffffffffffffffffffffffffffffffffffffffffffffffffffffff1916149050919050565b50505050565b6008805490506009600083815260200190815260200160002081905550600881908060018154018082558091505060019003906000526020600020016000909190919091505550565b6000600161247e84610a9d565b61248891906140f2565b905060006007600084815260200190815260200160002054905081811461256d576000600660008673ffffffffffffffffffffffffffffffffffffffff1673ffffffffffffffffffffffffffffffffffffffff168152602001908152602001600020600084815260200190815260200160002054905080600660008773ffffffffffffffffffffffffffffffffffffffff1673ffffffffffffffffffffffffffffffffffffffff168152602001908152602001600020600084815260200190815260200160002081905550816007600083815260200190815260200160002081905550505b6007600084815260200190815260200160002060009055600660008573ffffffffffffffffffffffffffffffffffffffff1673ffffffffffffffffffffffffffffffffffffffff16815260200190815260200160002060008381526020019081526020016000206000905550505050565b600060016008805490506125f291906140f2565b905060006009600084815260200190815260200160002054905060006008838154811061262257612621613409565b5b90600052602060002001549050806008838154811061264457612643613409565b5b90600052602060002001819055508160096000838152602001908152602001600020819055506009600085815260200190815260200160002060009055600880548061269357612692614126565b5b6001900381819060005260206000200160009055905550505050565b60006126ba83610a9d565b905081600660008573ffffffffffffffffffffffffffffffffffffffff1673ffffffffffffffffffffffffffffffffffffffff168152602001908152602001600020600083815260200190815260200160002081905550806007600084815260200190815260200160002081905550505050565b600080600090507a184f03e93ff9f4daa797ed6e38ed64bf6a1f010000000000000000831061278c577a184f03e93ff9f4daa797ed6e38ed64bf6a1f01000000000000000083816127825761278161375b565b5b0492506040810190505b6d04ee2d6d415b85acef810000000083106127c9576d04ee2d6d415b85acef810000000083816127bf576127be61375b565b5b0492506020810190505b662386f26fc1000083106127f857662386f26fc1000083816127ee576127ed61375b565b5b0492506010810190505b6305f5e1008310612821576305f5e10083816128175761281661375b565b5b0492506008810190505b612710831061284657612710838161283c5761283b61375b565b5b0492506004810190505b60648310612869576064838161285f5761285e61375b565b5b0492506002810190505b600a8310612878576001810190505b80915050919050565b6000604051905090565b600080fd5b600080fd5b60007fffffffff0000000000000000000000000000000000000000000000000000000082169050919050565b6128ca81612895565b81146128d557600080fd5b50565b6000813590506128e7816128c1565b92915050565b6000602082840312156129035761290261288b565b5b6000612911848285016128d8565b91505092915050565b60008115159050919050565b61292f8161291a565b82525050565b600060208201905061294a6000830184612926565b92915050565b600081519050919050565b600082825260208201905092915050565b60005b8381101561298a57808201518184015260208101905061296f565b60008484015250505050565b6000601f19601f8301169050919050565b60006129b282612950565b6129bc818561295b565b93506129cc81856020860161296c565b6129d581612996565b840191505092915050565b600060208201905081810360008301526129fa81846129a7565b905092915050565b6000819050919050565b612a1581612a02565b8114612a2057600080fd5b50565b600081359050612a3281612a0c565b92915050565b600060208284031215612a4e57612a4d61288b565b5b6000612a5c84828501612a23565b91505092915050565b600073ffffffffffffffffffffffffffffffffffffffff82169050919050565b6000612a9082612a65565b9050919050565b612aa081612a85565b82525050565b6000602082019050612abb6000830184612a97565b92915050565b612aca81612a85565b8114612ad557600080fd5b50565b600081359050612ae781612ac1565b92915050565b60008060408385031215612b0457612b0361288b565b5b6000612b1285828601612ad8565b9250506020612b2385828601612a23565b9150509250929050565b612b3681612a02565b82525050565b6000602082019050612b516000830184612b2d565b92915050565b600081519050919050565b600082825260208201905092915050565b6000819050602082019050919050565b612b8c81612a02565b82525050565b6000612b9e8383612b83565b60208301905092915050565b6000602082019050919050565b6000612bc282612b57565b612bcc8185612b62565b9350612bd783612b73565b8060005b83811015612c08578151612bef8882612b92565b9750612bfa83612baa565b925050600181019050612bdb565b5085935050505092915050565b60006020820190508181036000830152612c2f8184612bb7565b905092915050565b600080600060608486031215612c5057612c4f61288b565b5b6000612c5e86828701612ad8565b9350506020612c6f86828701612ad8565b9250506040612c8086828701612a23565b9150509250925092565b60008060408385031215612ca157612ca061288b565b5b6000612caf85828601612a23565b9250506020612cc085828601612a23565b9150509250929050565b600060208284031215612ce057612cdf61288b565b5b6000612cee84828501612ad8565b91505092915050565b600080fd5b600080fd5b7f4e487b7100000000000000000000000000000000000000000000000000000000600052604160045260246000fd5b612d3982612996565b810181811067ffffffffffffffff82111715612d5857612d57612d01565b5b80604052505050565b6000612d6b612881565b9050612d778282612d30565b919050565b600067ffffffffffffffff821115612d9757612d96612d01565b5b612da082612996565b9050602081019050919050565b82818337600083830152505050565b6000612dcf612dca84612d7c565b612d61565b905082815260208101848484011115612deb57612dea612cfc565b5b612df6848285612dad565b509392505050565b600082601f830112612e1357612e12612cf7565b5b8135612e23848260208601612dbc565b91505092915050565b60008060408385031215612e4357612e4261288b565b5b6000612e5185828601612a23565b925050602083013567ffffffffffffffff811115612e7257612e71612890565b5b612e7e85828601612dfe565b9150509250929050565b612e918161291a565b8114612e9c57600080fd5b50565b600081359050612eae81612e88565b92915050565b60008060408385031215612ecb57612eca61288b565b5b6000612ed985828601612ad8565b9250506020612eea85828601612e9f565b9150509250929050565b600067ffffffffffffffff821115612f0f57612f0e612d01565b5b612f1882612996565b9050602081019050919050565b6000612f38612f3384612ef4565b612d61565b905082815260208101848484011115612f5457612f53612cfc565b5b612f5f848285612dad565b509392505050565b600082601f830112612f7c57612f7b612cf7565b5b8135612f8c848260208601612f25565b91505092915050565b60008060008060808587031215612faf57612fae61288b565b5b6000612fbd87828801612ad8565b9450506020612fce87828801612ad8565b9350506040612fdf87828801612a23565b925050606085013567ffffffffffffffff81111561300057612fff612890565b5b61300c87828801612f67565b91505092959194509250565b6000806040838503121561302f5761302e61288b565b5b600061303d85828601612ad8565b925050602061304e85828601612ad8565b9150509250929050565b7f4e487b7100000000000000000000000000000000000000000000000000000000600052602260045260246000fd5b6000600282049050600182168061309f57607f821691505b6020821081036130b2576130b1613058565b5b50919050565b7f4552433732313a20617070726f76616c20746f2063757272656e74206f776e6560008201527f7200000000000000000000000000000000000000000000000000000000000000602082015250565b600061311460218361295b565b915061311f826130b8565b604082019050919050565b6000602082019050818103600083015261314381613107565b9050919050565b7f4552433732313a20617070726f76652063616c6c6572206973206e6f7420746f60008201527f6b656e206f776e6572206f7220617070726f76656420666f7220616c6c000000602082015250565b60006131a6603d8361295b565b91506131b18261314a565b604082019050919050565b600060208201905081810360008301526131d581613199565b9050919050565b7f4552433732313a2063616c6c6572206973206e6f7420746f6b656e206f776e6560008201527f72206f7220617070726f76656400000000000000000000000000000000000000602082015250565b6000613238602d8361295b565b9150613243826131dc565b604082019050919050565b600060208201905081810360008301526132678161322b565b9050919050565b7f455243373231456e756d657261626c653a206f776e657220696e646578206f7560008201527f74206f6620626f756e6473000000000000000000000000000000000000000000602082015250565b60006132ca602b8361295b565b91506132d58261326e565b604082019050919050565b600060208201905081810360008301526132f9816132bd565b9050919050565b7f4e487b7100000000000000000000000000000000000000000000000000000000600052601160045260246000fd5b600061333a82612a02565b91507fffffffffffffffffffffffffffffffffffffffffffffffffffffffffffffffff820361336c5761336b613300565b5b600182019050919050565b7f455243373231456e756d657261626c653a20676c6f62616c20696e646578206f60008201527f7574206f6620626f756e64730000000000000000000000000000000000000000602082015250565b60006133d3602c8361295b565b91506133de82613377565b604082019050919050565b60006020820190508181036000830152613402816133c6565b9050919050565b7f4e487b7100000000000000000000000000000000000000000000000000000000600052603260045260246000fd5b7f4c6f636174696f6e20616c726561647920657869737473000000000000000000600082015250565b600061346e60178361295b565b915061347982613438565b602082019050919050565b6000602082019050818103600083015261349d81613461565b9050919050565b60006040820190506134b96000830185612b2d565b6134c66020830184612b2d565b9392505050565b7f4552433732313a20696e76616c696420746f6b656e2049440000000000000000600082015250565b600061350360188361295b565b915061350e826134cd565b602082019050919050565b60006020820190508181036000830152613532816134f6565b9050919050565b7f4552433732313a2061646472657373207a65726f206973206e6f74206120766160008201527f6c6964206f776e65720000000000000000000000000000000000000000000000602082015250565b600061359560298361295b565b91506135a082613539565b604082019050919050565b600060208201905081810360008301526135c481613588565b9050919050565b7f4c6f636174696f6e20646f6573206e6f74206578697374000000000000000000600082015250565b600061360160178361295b565b915061360c826135cb565b602082019050919050565b60006020820190508181036000830152613630816135f4565b9050919050565b7f4461696c79206d696e74206c696d6974207265616368656420666f722074686960008201527f73206c6f636174696f6e00000000000000000000000000000000000000000000602082015250565b6000613693602a8361295b565b915061369e82613637565b604082019050919050565b600060208201905081810360008301526136c281613686565b9050919050565b7f557365722068617320616c7265616479206d696e74656420666f72207468697360008201527f206c6f636174696f6e20746f6461790000000000000000000000000000000000602082015250565b6000613725602f8361295b565b9150613730826136c9565b604082019050919050565b6000602082019050818103600083015261375481613718565b9050919050565b7f4e487b7100000000000000000000000000000000000000000000000000000000600052601260045260246000fd5b600061379582612a02565b91506137a083612a02565b9250826137b0576137af61375b565b5b828204905092915050565b600060a0820190506137d06000830188612b2d565b6137dd6020830187612b2d565b6137ea6040830186612a97565b6137f76060830185612b2d565b818103608083015261380981846129a7565b90509695505050505050565b7f4f776e61626c653a206e6577206f776e657220697320746865207a65726f206160008201527f6464726573730000000000000000000000000000000000000000000000000000602082015250565b600061387160268361295b565b915061387c82613815565b604082019050919050565b600060208201905081810360008301526138a081613864565b9050919050565b7f4552433732313a207472616e736665722066726f6d20696e636f72726563742060008201527f6f776e6572000000000000000000000000000000000000000000000000000000602082015250565b600061390360258361295b565b915061390e826138a7565b604082019050919050565b60006020820190508181036000830152613932816138f6565b9050919050565b7f4552433732313a207472616e7366657220746f20746865207a65726f2061646460008201527f7265737300000000000000000000000000000000000000000000000000000000602082015250565b600061399560248361295b565b91506139a082613939565b604082019050919050565b600060208201905081810360008301526139c481613988565b9050919050565b7f4f776e61626c653a2063616c6c6572206973206e6f7420746865206f776e6572600082015250565b6000613a0160208361295b565b9150613a0c826139cb565b602082019050919050565b60006020820190508181036000830152613a30816139f4565b9050919050565b7f45524337323155524953746f726167653a2055524920736574206f66206e6f6e60008201527f6578697374656e7420746f6b656e000000000000000000000000000000000000602082015250565b6000613a93602e8361295b565b9150613a9e82613a37565b604082019050919050565b60006020820190508181036000830152613ac281613a86565b9050919050565b60008190508160005260206000209050919050565b60006020601f8301049050919050565b600082821b905092915050565b600060088302613b2b7fffffffffffffffffffffffffffffffffffffffffffffffffffffffffffffffff82613aee565b613b358683613aee565b95508019841693508086168417925050509392505050565b6000819050919050565b6000613b72613b6d613b6884612a02565b613b4d565b612a02565b9050919050565b6000819050919050565b613b8c83613b57565b613ba0613b9882613b79565b848454613afb565b825550505050565b600090565b613bb5613ba8565b613bc0818484613b83565b505050565b5b81811015613be457613bd9600082613bad565b600181019050613bc6565b5050565b601f821115613c2957613bfa81613ac9565b613c0384613ade565b81016020851015613c12578190505b613c26613c1e85613ade565b830182613bc5565b50505b505050565b600082821c905092915050565b6000613c4c60001984600802613c2e565b1980831691505092915050565b6000613c658383613c3b565b9150826002028217905092915050565b613c7e82612950565b67ffffffffffffffff811115613c9757613c96612d01565b5b613ca18254613087565b613cac828285613be8565b600060209050601f831160018114613cdf5760008415613ccd578287015190505b613cd78582613c59565b865550613d3f565b601f198416613ced86613ac9565b60005b82811015613d1557848901518255600182019150602085019450602081019050613cf0565b86831015613d325784890151613d2e601f891682613c3b565b8355505b6001600288020188555050505b505050505050565b7f4552433732313a20617070726f766520746f2063616c6c657200000000000000600082015250565b6000613d7d60198361295b565b9150613d8882613d47565b602082019050919050565b60006020820190508181036000830152613dac81613d70565b9050919050565b7f4552433732313a207472616e7366657220746f206e6f6e20455243373231526560008201527f63656976657220696d706c656d656e7465720000000000000000000000000000602082015250565b6000613e0f60328361295b565b9150613e1a82613db3565b604082019050919050565b60006020820190508181036000830152613e3e81613e02565b9050919050565b600081905092915050565b6000613e5b82612950565b613e658185613e45565b9350613e7581856020860161296c565b80840191505092915050565b6000613e8d8285613e50565b9150613e998284613e50565b91508190509392505050565b600081519050919050565b600082825260208201905092915050565b6000613ecc82613ea5565b613ed68185613eb0565b9350613ee681856020860161296c565b613eef81612996565b840191505092915050565b6000608082019050613f0f6000830187612a97565b613f1c6020830186612a97565b613f296040830185612b2d565b8181036060830152613f3b8184613ec1565b905095945050505050565b600081519050613f55816128c1565b92915050565b600060208284031215613f7157613f7061288b565b5b6000613f7f84828501613f46565b91505092915050565b7f455243373231456e756d657261626c653a20636f6e736563757469766520747260008201527f616e7366657273206e6f7420737570706f727465640000000000000000000000602082015250565b6000613fe460358361295b565b9150613fef82613f88565b604082019050919050565b6000602082019050818103600083015261401381613fd7565b9050919050565b7f4552433732313a206d696e7420746f20746865207a65726f2061646472657373600082015250565b600061405060208361295b565b915061405b8261401a565b602082019050919050565b6000602082019050818103600083015261407f81614043565b9050919050565b7f4552433732313a20746f6b656e20616c7265616479206d696e74656400000000600082015250565b60006140bc601c8361295b565b91506140c782614086565b602082019050919050565b600060208201905081810360008301526140eb816140af565b9050919050565b60006140fd82612a02565b915061410883612a02565b92508282039050818111156141205761411f613300565b5b92915050565b7f4e487b7100000000000000000000000000000000000000000000000000000000600052603160045260246000fdfea2646970667358221220d8099e3a0e09041ae3e34ffdeb647780a5d8d8c9fe50e6a4dacb46409961050964736f6c63430008180033",
  "linkReferences": {},
  "deployedLinkReferences": {}
}